:020000040800F2
:10000000F8050020D5000008DD000008DF0000082A
:1000100000000000000000000000000000000000E0
:10002000000000000000000000000000E1000008E7
:100030000000000000000000E3000008E5000008E8
:10004000E7000008E7000008E7000008E7000008F4
:10005000E7000008E7000008E7000008690A000858
:10006000E7000008E7000008E700000800000000C3
:10007000E70000080000000000000000E7000008A2
:10008000E7000008E7000008FD160008E700000888
:10009000E7000008E700000800000000E700000893
:1000A000E7000008E11B0008391A0008B51A00082B
:1000B000E7000008E7000008E7000008E700000884
:1000C0000348854600F032FA00480047252700081B
:1000D000F80500200448804704480047FEE7FEE793
:1000E000FEE7FEE7FEE7FEE7DD160008C1000008B8
:1000F00030B50B46014600202022012409E00D46C0
:10010000D5409D4205D31D469540491B2546954047
:1001100040191546521E002DF1DC30BD70B500248B
:100120002546002801DA01244042002901DA012590
:100130004942FFF7DDFFAC4200D04042002C00D026
:10014000494270BDF0B51FB40646002082B0054696
:100150004024019100901BE0019922460F46304651
:1001600000F08BF9049A059B801A994110D3104630
:100170001946224600F071F9361A8F41019722463E
:1001800001200021009F00F068F938184D410090CF
:100190002046641E0028DFDC019B00982946324679
:1001A00007B0F0BDD2B201E00270401C491EFBD284
:1001B00070470022F6E710B513460A460446194672
:1001C000FFF7F0FF204610BD30B505462A460B4626
:1001D00010781C78521C5B1C002801D0A042F7D07C
:1001E000002C03D0002802D06D1CEFE7284630BD5C
:1001F0000FB400B58DB009900B9010A900200091AC
:10020000C0430A9000200C900648069006480790CC
:100210006A4609A80F9900F057F90DB008BC04B060
:1002200018470000E904000809050008FFB5002789
:10023000FF4383B000205C6801909E681D46A96959
:100240007F1C049888470090296A88470028F6D1C7
:100250000098401C0CD0032040028443002E19DD7E
:10026000600614D500982B2809D02D280FD103E063
:100270000020C04307B0F0BD012080020443A969FB
:100280007F1C04988847761E0090002E02DD00989F
:10029000302803D00598002825D035E00120400201
:1002A0000443A969761E7F1C049888470090002E9D
:1002B00003DD782805D0582803D00598002810D0F1
:1002C00022E00598002801D010281DD1012040020D
:1002D0008443A969761E7F1C0498884700901020EB
:1002E00002E0082000E00A2005900DE0012149020B
:1002F0000C43059A0199761E514308180190A9698B
:100300007F1C049888470090002E05DD0599009811
:1003100000F0C4F80028E9DAE96904988847A005E4
:1003200002D40120C043A5E7E00722D1600611D521
:100330006005019800D5404229680A1D2A600968B5
:10034000220501D5087014E0220701D5088010E0CD
:1003500008600EE02868011D29600068210502D5AB
:100360000199017005E02107019901D5018000E0A4
:10037000016038467EE7FFB5002083B000905068EA
:1003800001909169144600269768049888470546AD
:100390000C990698084305D009E0A169761C0498D9
:1003A00088470546216A284688470028F5D1681CF9
:1003B00003D00198C00704D017E00020C04307B065
:1003C000F0BD2068011D2160006800900DE00198DB
:1003D000C00704D1009805700098401C0090A169E6
:1003E000761C7F1E049888470546002F1CDD681C7C
:1003F0001AD0069800280FD0E817C00E40194111F6
:100400008A0006994009511840012A1A09680120FA
:1004100090400142DBD107E00C980028D7D1216A37
:10042000284688470028D2D0E16904988847019877
:100430000C99C007C00F084302D100980021017039
:10044000A068B84204DD0C98002804D0002F02D028
:100450000120C043B3E73046B1E710B5202A04DBE2
:100460000146203A9140002010BD914020239C1A63
:100470000346E3401943904010BD10B5202A04DB29
:100480000846203AD040002110BD0B46D340D04052
:100490002024A21A91400843194610BD3A2800D2E0
:1004A0003038202302469A43412A01D31046373878
:1004B000884201D30020C0437047000002681378CF
:1004C000511801601846704710B5D1600449516158
:1004D0000449116200211161114600F041F810BD7C
:1004E000BD040008510500084268002A08D00168D0
:1004F0000B78491C002B03D0521E06C018467047CB
:100500000121C160881E70474268002A0BD0C36871
:100510000168002B07D183688B4204D0491E521C0E
:1005200006C0002070470020C0437047064C0125DC
:10053000064E05E0E36807CC2B430C3C984710348B
:10054000B442F7D3FFF7C0FD0C3700082C37000882
:1005500010B50F21C0B2490200F09CF910BD000097
:10056000F3B58DB000200A9001200B9000260846BC
:100570000C300C46099062690121099890470500EA
:100580002ED0252D2DD0216A8847002818D06269E9
:10059000012109989047216A88470028F7D1411E18
:1005A00062690998904700E0761CA1690D98884718
:1005B000216A88470028F7D1E1690D988847DAE772
:1005C000A1690D9888470746A84201D1761CD2E759
:1005D000E1690D9888477F1C02D10A98002877D0DE
:1005E00046E1002762693D463946099890472A2826
:1005F0000CD16269012109989047012506E00A2182
:100600004F433F18303FEBD410200543626901216E
:1006100009989047014630390A2903D29A498F42F6
:10062000DEDCECE7E90600D4984F6C280AD04C28B1
:1006300010D0682824D06A282ED074280CD07A28AC
:100640000AD00DE062690121099890476C2823D0F7
:1006500004211CE02020054362690121099890478C
:10066000A760656065284FD026DC582839D01ADC91
:10067000452849D012DC252834D04128B0D143E0A8
:100680006269012109989047682802D008210D432A
:10069000E6E70120C002DEE70220DCE7462833D08F
:1006A00047282CD130E05B287BD061282CD06328F0
:1006B00077D0642823D15EE06F284CD009DC66280F
:1006C00022D0672820D0692826D06E2817D12EE0A6
:1006D000CAE070284AD073286CD075284BD078288F
:1006E0000DD150E0A1690D9888470546252800D115
:1006F0006CE7E1690D9888476D1C00D16DE7B7E0A4
:100700000A2248E00A224FE0012023466A46C043FD
:100710000D99C046C046A0E02846402108436060CD
:10072000A807234601D5002235E000223CE02068DE
:10073000011D21600068290501D506701BE7290706
:1007400001D5068017E7A90703D5F11706604160B8
:1007500011E706600FE72846402108436060A807BC
:10076000234601D5082216E008221DE04849284604
:100770000840606016E02846402108436060A807F2
:100780002346BFD5BCE72846402108436060A80740
:1007900008D5234610220120C0430D99C046C0460B
:1007A0005BE007E0234610220120C0430D99FFF7CC
:1007B0003DFD52E000210C910B460091632802D0D0
:1007C0005B2807D043E0E80601D40120A0600120A7
:1007D00000903CE062690121099890475E2805D1AC
:1007E00001200C900146626909989047216900290F
:1007F00006D10B4601AA8F00491CD3510829FADB08
:10080000002835D0216900290ED1C117C90E091859
:100810004A11930001AA9A1849094901411A012075
:100820001368884003431360626901210998904767
:100830005D28E5D10C98002808D0002001AB81008C
:100840005A58401CD2435A500828F8DB01AB01200B
:100850002246C0430D99FFF78EFD00280ADA401C9E
:1008600006D10B98002803D00020C0430FB0F0BD84
:100870000A98FBE7E90702D10A99491C0A91361840
:1008800000200B9077E60000CCCCCC0CFFFFFF7F64
:10089000F1F7FFFF7F2801D9002207E0054B42084E
:1008A0009A5CC00700D112091207120F0120904074
:1008B00008407047CC36000810B50446434800781D
:1008C000C007C00F002800D110BD002C13D100209C
:1008D0003F4908703F49087002F0A6FEFF22F5323A
:1008E00000213D4802F002FBFF22F53200213B4887
:1008F00002F0FCFA68E0012C16D10120344908709E
:100900003449087000203649088002F093FE4B22DB
:10091000D2000021304802F0E9FAFF2278320021AB
:100920002E4802F0E3FA4FE0022C16D101202849AC
:1009300008702849087000202949088002F080FECC
:10094000FF2278320021244802F0D0FA4B22D20054
:100950000021224802F0CAFA36E0032C19D1002007
:100960001B49087001201B490870AA201D490880F6
:1009700000201B49088002F05DFE4B22D2000021BE
:10098000154802F0B3FAFA220021144802F0AEFA38
:100990001AE0042C18D100200D49087001200D49DF
:1009A0000870AA200F49088000200D49088002F035
:1009B00047FEFA220021084802F098FA4B22D200A2
:1009C0000021064802F092FA00BF7DE77600002081
:1009D000820000208100002000080040000C004040
:1009E0007E0000207C00002010B5044603E07D203E
:1009F000C00000F0A1FA2046611E8CB20028F6D19A
:100A000010BD000031B5002464210098FFF770FB91
:100A100004460CE000BF11481149086000BF0020E7
:100A20001049086000BF0F4800686428FBD32046C7
:100A3000641E0028EED100BF08480949086000BFC5
:100A400064210098FFF754FB0C460020054908601C
:100A500000BF04480068A042FBD338BDAAAA00002A
:100A6000003000405C00002070B5454801F0E6FE13
:100A7000002805D0424801F0D7FE01204149086016
:100A80003F48801C01F0DAFE00280FD03C48801C53
:100A900001F0CAFE01203B4908603B48007800286D
:100AA00004D13A480088401C384908803448401C2A
:100AB00001F0C4FE00280FD03148401C01F0B4FE04
:100AC00001203049086030480078002804D03048C0
:100AD0000088401C2E4908800320400601F0AEFE2D
:100AE00000280FD00320400601F09EFE012025497A
:100AF000086025480078002804D125480088401C5B
:100B0000234908801E48401E01F098FE00280FD09F
:100B10001B48401E01F088FE01201A4908601A484F
:100B20000078002804D019480088401C1749088024
:100B30001648008816490988884202DA1348008856
:100B400001E01348008805461048008810490988CC
:100B5000884202DD0D48008801E00D480088044607
:100B6000122C0BDBA81C80B2A04202DB0120094939
:100B700008700020054908800549088070BD000004
:100B80000D0000066C0000207500002070000020A1
:100B9000720000207400002008B50021009102229C
:100BA0006946002000F030FC6846008808BD00005F
:100BB00070B5FF2101311C4801F05CFF012000F0FD
:100BC00095FC062000F0B8F9FF210131164801F02C
:100BD0007CFF01214902144801F077FF062000F054
:100BE000ABF9002400250CE0012149020E4801F078
:100BF000FCFE012148400446002C00D003E0681CA4
:100C000085B2FA2DF0DB00BF062000F095F9FF2138
:100C10000131054801F02EFF062000F08DF900207B
:100C200000F064FC204670BD0004005010B501F0D7
:100C30000BFD10BDFFB581B0044615461E46FE20D3
:100C4000044001222046029900F094F80746002F44
:100C500007D03146284600F05BF8002801D001207B
:100C600000E00020074600F0FDF8384605B0F0BD72
:100C7000FFB581B0074614461D460022384602994A
:100C800000F078F80646002E07D02946204600F0EE
:100C900041F9002801D0012000E00020064600F0C4
:100CA000E1F8304605B0F0BD70B5082500240120FC
:100CB00000F01CFCA901154801F007FF062000F018
:100CC0003BF91AE0FF210131104801F0FEFE6006F9
:100CD000040E012149020D4801F087FE002801D0D1
:100CE00001200443062000F027F9FF2101310748C5
:100CF00001F0C0FE122000F01FF92846691ECDB297
:100D00000028DFD100F0F2FB204670BD0004005047
:100D100070B504460D460AE0FFF7C6FF2070641C5C
:100D2000002D02D100F05AF801E000F007F8284643
:100D3000691ECDB20028EFD1012070BD10B5012190
:100D400049020B4801F096FE062000F0F5F8FF215D
:100D50000131074801F0B9FE122000F0EDF8FF2143
:100D60000131034801F086FE062000F0E5F810BDD1
:100D70000004005070B504460D46164600F04AF8CF
:100D8000204600F08BF800280DD10120FFF72CFE43
:100D900000F040F8204600F081F8002803D100F070
:100DA00061F8002070BDE8B200F078F8002803D1A7
:100DB00000F058F80020F5E7012E0CD100F02AF8D9
:100DC00001212143084600F069F8002803D100F012
:100DD00049F80020E6E70120E4E7000010B5012112
:100DE00049020B4801F071FE062000F0A5F8FF2132
:100DF0000131074801F069FE122000F09DF8FF2143
:100E00000131034801F036FE062000F095F810BDD0
:100E10000004005010B5002000F068FB01214902D9
:100E20000F4801F052FE062000F086F8FF21013144
:100E30000B4801F04AFE062000F07EF8012149022D
:100E4000074801F017FE062000F076F8FF21013177
:100E5000034801F00FFE062000F06EF810BD000000
:100E60000004005010B5002000F040FB01214902B1
:100E7000094801F0FFFD062000F05EF8FF21013176
:100E8000054801F022FE062000F056F80121490233
:100E9000014801F01AFE10BD0004005070B5044670
:100EA0000825002000F022FB6901194801F0E2FD4D
:100EB000062000F041F823E080202040002805D0E3
:100EC00001214902124801F000FE04E0012149021B
:100ED0000F4801F0CFFD6006040E062000F02CF84C
:100EE000FF2101310A4801F0F0FD122000F024F842
:100EF000FF210131064801F0BDFD062000F01CF87D
:100F00002846691ECDB20028D6D1FFF751FE70BD2C
:100F10000004005070B504460D4606E02078641CBD
:100F2000FFF7BCFF002800D170BD2846691ECDB276
:100F30000028F3D10120F7E700E000BF0146421E80
:100F400090B20029F9D1704710B506210648FFF785
:100F500030F9552004490870AA2048700622002064
:100F600000F03FFE10BD00008A00002010B5FFF722
:100F700013FE04461348844219D11348002101800E
:100F8000418004220146022000F03EFA0E484078DB
:100F900000020D49097840180C4948800A48C07879
:100FA00000020949897840180849888005E0FFF760
:100FB000CBFF06210548FFF7FCF8044840880449A8
:100FC000088010BD55AA00008A000020840000207F
:100FD0009000002010B534488088052800DA10BD44
:100FE000002031498880012109030520000701F014
:100FF000F3FC002817D02D480078401C2B490870BE
:101000000846007802281BDB022008702848007878
:10101000002815D1012026490870002025490870B4
:1010200000F032F90CE021480078002805DD1F4867
:101030000078401E1D49087002E000201C4908701D
:101040001B48007800282CD110210520000701F052
:10105000C3FC002814D117480078C92804DA1548C1
:101060000078401C1349087012480078C82818D12D
:101070001021114801F027FD022002F055FA10E07E
:101080000C48007800280CDD0A480078401E094909
:10109000087008460078002803D11021064801F0A6
:1010A000E7FC00BF9BE70000640000207A000020FE
:1010B000800000207900002000040050F3B581B0CA
:1010C000002599E0019846193078B62800D091E0C3
:1010D000E81C0299884200DB92E0B078071DE9190C
:1010E0000298814200DD8BE070780090F4780098DF
:1010F000012808D1022C02DB00F01AF976E0012069
:1011000002F012FA72E00098022869D13D48007896
:10111000C007C00F002803D1E819401E85B269E05E
:10112000002C0FD1374800881021884335490880AA
:10113000084600884021884332490880002000F09A
:101140003BFA53E0012C10D12E480088102188432F
:1011500010302C49088008460088402188432949DE
:101160000880012000F028FA40E0022C11D1254827
:1011700000881021884310302249088008460088E2
:101180004021884340301F490880022000F0ECF9DC
:101190002CE0032C11D11B480088402188434030AB
:1011A00018490880084600881021884310301549E6
:1011B0000880022000F0D8F918E0042C16D111485C
:1011C0000088402188430F49088008460088102184
:1011D000884310300B490880002000F0C5F905E075
:1011E0000098032802D12046FFF766FBE819401E4D
:1011F00085B200BF681C85B20298854200DA61E7BB
:1012000000BFFEBD76000020F3B581B00E4600257C
:101210002EE0019844192078B52800D026E0E81C7B
:10122000B04200DB26E0A078071DE819B04200DDDF
:1012300020E06078022809D1E078032812D10EA0BE
:1012400000F040FD032002F06FF90BE06078032806
:1012500008D1E078002802D000F06AF802E001200E
:1012600002F062F9E819401E85B200BF681C85B221
:10127000B542CEDB00BFFEBD776174657220667536
:101280006C6C0D0A0000000010B52348008840086F
:1012900040002149088008460088022188431E49F1
:1012A000088008460088042188431B4908800846B6
:1012B00000880821884318490880002017490870D1
:1012C0001548008820218843134908800846008873
:1012D0004021884310490880012189020520000728
:1012E00001F0C6FB20210E4801F0C2FB002001F0F6
:1012F0008FF9002000F038F90A20FFF783FB002067
:1013000000F01EF90A20FFF77DFB002000F018F91D
:1013100004A000F0D7FC10BD76000020780000206B
:1013200000040050706F776572206F66660D0A00CA
:1013300010B52B480078C007C00F002800D010BDA2
:101340002748008840084000401C2549088008467E
:101350000088022188432249088008460088042129
:1013600088431F49088008460088082188431C4993
:10137000088000201B4908701B49087010211B4879
:1013800001F076FB012189020520000701F09BFB9B
:101390002021164801F097FB02F046F9FF22F532B2
:1013A0000021134801F0A2FDFF22F532002111486F
:1013B00001F09CFDFF20F53001F02AF9022000F039
:1013C000BFF80A20FFF71EFB022000F0B9F800204A
:1013D0000949488009A000F075FC00BFAFE7000094
:1013E00076000020790000207800002000040050E2
:1013F00000080040000C004064000020706F77651A
:1014000072206F6E0D0A0000F7B584B0044605988F
:1014100001902046E117C90E091849114901611AC6
:101420008EB206998819C117C90E0918C9020D0C88
:10143000002D04DD069880196901401A00E0069825
:1014400080B20390002D08D10398C3B2E1B2A0206E
:10145000019AFFF7EFFB07B0F0BD2020801BC3B25D
:10146000E1B2A020019AFFF7E5FB02900298002864
:1014700000D1F0E70A20FFF7C5FA20462030801B94
:1014800084B201982030801B0190002715E079017B
:1014900001980A1878010019C0B220230146009073
:1014A000A020FFF7C7FB02900298002800D1D2E7E6
:1014B0000A20FFF7A7FA781C87B2681EB842E6DC5C
:1014C000039800280FDD0398C3B2681E41010198FC
:1014D0000A18681E40010019C0B201460090A02001
:1014E000FFF7A8FBB7E70120B5E7000010B586B00D
:1014F0000446142101A8FEF75CFE01204002019081
:10150000002C01D1012000E000200290002C01D02D
:10151000012000E0002003900120049001A902486E
:1015200001F06CFA06B010BD0004005010B5FFF7D2
:1015300051FD01F03BFE00F0D1F900F04BFA10BD77
:1015400010B50446A520074908700120487088702E
:101550000846C470FF2008710521024800F022FBF4
:1015600010BD0000E801002010B50446A520074981
:10157000087005204870012088700846C470FF205C
:1015800008710521014800F00DFB10BDE8010020A5
:1015900010B50446A52007490870042048700120B2
:1015A00088700846C470FF2008710521014800F0CA
:1015B000F9FA10BDE801002010B50446A52007493E
:1015C000087003204870012088700846C470FF200E
:1015D00008710521014800F0E5FA10BDE80100207E
:1015E000FEB53948806838210840102812D004DC44
:1015F000002848D0082845D104E0182807D0202822
:1016000040D101E0314D4DE00125ED034AE07D255B
:101610002D0247E02C48C068C607F60F002E01D007
:101620002A4C04E0002E01D1294C00E00024264879
:10163000C068F8210840C7082348C068072109028C
:101640000840000A0290002F00D1202702980028AD
:1016500001D1082002902146794308460299FEF7FD
:1016600047FD04461848C068032149040840400C5F
:10167000019001220198824011462046FEF738FD74
:1016800005460FE000BF104800680321C90208406A
:10169000C10A0120884000900D480099FEF728FDFE
:1016A000054600BF00BF08488068072109020840BE
:1016B000000A800007490C5821462846FEF718FD0D
:1016C00005490860FEBD00000010024000127A00CB
:1016D0000024F4008C3600089400002003480449DC
:1016E0008860044804490860704700000000000852
:1016F00000ED00E00024F4009400002010B501206B
:101700001149C9680140814200D100E0002100294F
:1017100019D001200C4909690140814200D100E043
:10172000002100290FD00120C143074A116100BFE9
:1017300000F06EF801208003044949694140034AE2
:10174000516100BF00BF10BD0010004000040050F8
:101750002B490978C907C90F002905D028490978FC
:1017600049084900264A1170254909788907C90F97
:10177000002912D02249097802229143204A11708F
:10178000002008E041001F4A515A491C42001D4BED
:101790009952411CC8B20628F4DB19490978490757
:1017A000C90F002912D01649097804229143144A1E
:1017B0001170002008E04100134A515A491C4200B0
:1017C000114B9952411CC8B20328F4DB0C4909782B
:1017D0000907C90F002912D0094909780822914345
:1017E000074A1170002008E04100084A515A491C7C
:1017F0004200064B9952411CC8B20128F4DB7047E5
:10180000620000209C010020640000206A0000208B
:1018100010B52B480088401C2949088029480078C9
:1018200040084000401C2749087027480068401CB9
:101830002549086022490888C117490F0918C910AD
:10184000C900411A3AD11F48007802218843801C00
:101850001C4908701D480068401C1C4908601C4851
:101860000068401C1A490860502115480088FEF79E
:1018700055FC002922D11348007804218843001D1B
:10188000104908707D2189010D480088FEF746FC4B
:10189000002913D10B4800780821884308300949F2
:1018A00008700C480068401C0A4908600448008819
:1018B0000949884202DB00200149088010BD000070
:1018C0006000002062000020500000205400002032
:1018D0005C00002058000020409C000010B53948F2
:1018E0000078C007C00F002832D13748008864282C
:1018F0002DDB00203449088034480078401C3349EF
:101900000870304800788007C00F002806D00846CD
:101910000078032802DBFFF7B7FC18E029480078BD
:101920004007C00F002806D028480078052802DBB1
:10193000FFF7AAFC0BE0234800780007C00F00283F
:1019400005D022480078032801DBFFF79DFC10BD7D
:101950001C480078C006C00F002831D01C48007811
:10196000002814D000201A490870174948801548EB
:1019700000784006C00F002809D1124800882021B5
:10198000884320300F4908800120FFF7EDFD0E4805
:1019900040884B21C900884212DB00200A49488058
:1019A000084800784006C00F002809D10548008883
:1019B000202188432030034908800120FFF7D4FD0F
:1019C00000BFC4E7760000206400002078000020FB
:1019D0007400002010B51248007800281FD011486C
:1019E000007800281BD110480088401C0E49088050
:1019F000084600880D490988884210DB0020084904
:101A0000087001F011FEFF22F5320021084801F0B4
:101A10006DFAFF22F5320021064801F067FA10BD89
:101A200081000020820000207E0000207C00002039
:101A300000080040000C004010B52021194801F0BA
:101A4000C4FA002805D10121164801F0C7FA002880
:101A500009D00821134801F0CAFA002803D0082150
:101A6000104801F0A7FA20210E4801F0AEFA002834
:101A700017D020210B4801F0BAFA002811D00A48EB
:101A8000006840280AD200BF0649496ACAB206491E
:101A90000868411C044B196004490A540020044999
:101AA000888010BD0044004018000020DC000020A9
:101AB0009C01002010B52021334801F086FA00284F
:101AC00005D10121304801F089FA002809D0082108
:101AD0002D4801F08CFA002803D008212A4801F093
:101AE00069FA2021284801F070FA002817D0202137
:101AF000254801F07CFA002811D0244800684028CD
:101B00000AD200BF2049496ACAB220490868411C6C
:101B10001E4B19601E490A5400201E49C88020210E
:101B20001D4801F052FA002805D101211A4801F0A0
:101B300055FA002809D00821174801F058FA002862
:101B400003D00821144801F035FA2021124801F091
:101B50003CFA002817D020210F4801F048FA00284D
:101B600011D00E48006840280AD200BF0A49496ACD
:101B7000CAB20A490868411C084B196008490A544E
:101B800000200449088110BD004800401C000020CE
:101B90001C0100209C010020004C0040200000207F
:101BA0005C01002070B505460E4600BF80210B4841
:101BB00001F026FA0028F9D000240CE0285D07493E
:101BC000886200BF00BF4021044801F019FA0028D4
:101BD000F9D0601CC4B2B442F0DB70BD004C0040D0
:101BE0007047F7B584B00446059801902046E11788
:101BF000C90E091849114901611A8FB20699C8190D
:101C0000C117C90E0918C9020D0C002D04DD069874
:101C1000C0196901401A00E0069880B20390002DB7
:101C200008D10398C3B2E1B2A020019AFFF720F8CF
:101C300007B0F0BD2020C01BC3B2E1B2A020019AC2
:101C4000FFF716F802900298002800D1F0E720462E
:101C50002030C01B84B201982030C01B01900A20A4
:101C6000FEF7D0FE002615E0710101980A187001F8
:101C70000019C0B2202301460090A020FEF7F8FF13
:101C800002900298002800D1D2E70A20FEF7BAFE9F
:101C9000701C86B2681EB042E6DC039800280FDD97
:101CA0000398C3B2681E410101980A18681E4001DA
:101CB0000019C0B201460090A020FEF7D9FFB7E797
:101CC0000120B5E70FB410B503A9044B044A0298EC
:101CD00000F0F8F810BC08BC04B01847252600082E
:101CE000980000200FB410B504A9074B02AA03986E
:101CF00000F0E8F8044602A9002000F01DFB204691
:101D000010BC08BC04B0184739230008002805DBC4
:101D1000C206D20E01219140014A116070470000B5
:101D200000E100E0002805DBC206D20E012191404F
:101D3000014A11607047000000E100E010B5002882
:101D400019DB1A4A03231B02D21883089B00D258BE
:101D50008307DC0EFF23A3409A438B071B0E8407E7
:101D6000E40EA3401A43114B032424021B198408D8
:101D7000A4001A5118E00E4A03071B0F083B9B08EA
:101D80009B00D2588307DC0EFF23A3409A438B07A6
:101D90001B0E8407E40EA3401A43054B0407240FCF
:101DA000083CA408A4001A5110BD000000E100E0A6
:101DB0001CED00E010B5002819DB1A4A03231B02B2
:101DC000D21883089B00D2588307DC0EFF23A34060
:101DD0009A438B071B0E8407E40EA3401A43114B52
:101DE000032424021B198408A4001A5118E00E4A87
:101DF00003071B0F083B9B089B00D2588307DC0E90
:101E0000FF23A3409A438B071B0E8407E40EA340D5
:101E10001A43054B0407240F083CA408A4001A51D8
:101E200010BD000000E100E01CED00E010B500284E
:101E300019DB1A4A03231B02D21883089B00D258CD
:101E40008307DC0EFF23A3409A438B071B0E8407F6
:101E5000E40EA3401A43114B032424021B198408E7
:101E6000A4001A5118E00E4A03071B0F083B9B08F9
:101E70009B00D2588307DC0EFF23A3409A438B07B5
:101E80001B0E8407E40EA3401A43054B0407240FDE
:101E9000083CA408A4001A5110BD000000E100E0B5
:101EA0001CED00E002E008C8121F08C1002AFAD1A8
:101EB00070477047002001E001C1121F002AFBD1CA
:101EC00070470000FFB591B00F460546002606E0BA
:101ED00025280AD0149A139990476D1C761C2878EF
:101EE0000028F5D1304615B0F0BD00240094012142
:101EF000F34A029400E004436D1C2B780846203B13
:101F000098401042F7D128782A280ED0022128784C
:101F10000246303A092A15D8009A0A235A43303A21
:101F200080180C436D1C0090F1E701CF0090002851
:101F300005DA01204003044300984042009002204B
:101F400004436D1C28782E2815D10420044368789A
:101F50006D1C2A280AD101CF6D1C02900BE002995A
:101F60000A225143303940186D1C029028780146EE
:101F700030390929F3D928786C2810D006DC4C2890
:101F80001AD068280ED06A2817D104E0742813D01C
:101F90007A2812D110E00120400504430CE0012111
:101FA000090501E0032109050C436978814203D149
:101FB0000120000524186D1C6D1C287803906E28E4
:101FC0001ED00CDC632831D004DC00288AD05828CD
:101FD00011D1B2E064287BD069280CD178E0732855
:101FE0002DD004DC6F2870D0702804D1A7E07528AC
:101FF0006CD078286BD0149A13999047761C62E0C5
:102000006002400F022807D003280AD0042838684D
:102010000AD006603F1D56E03868F117066041603F
:10202000F8E738680680F5E70670F3E73878694620
:1020300008740020487404A80390012003E0386865
:1020400003900020C0433F1D61070FD5002101E030
:102050000199491C029A0191914213DA8142F7DBFE
:10206000019A0399895C0029F2D10BE0002101E07B
:102070000199491C01918142FADB019A0399895C1B
:102080000029F5D101990098139A401A0090214631
:10209000149B00F03BF901998019461807E003985A
:1020A00003990078491C0391149A13999047019859
:1020B000401E0190401CF2D12146149B139A0098B7
:1020C00000F014F986196D1C09E741E033E034E0B3
:1020D0000A200021049005916002410F022905D0D9
:1020E00001CFC2179446032905D007E0FF1DFF0862
:1020F000FF0003CF06E000B2C2179446042902D1C4
:1021000040B2C1178C4600226146944506DA0A4661
:102110000021404291418C462D2102E0210504D549
:102120002B216A461176012103E0E10701D020212D
:10213000F7E7019154E00A200BE0102009E010209D
:10214000049000210420044308200591029003E03C
:1021500008200021059104906002410F022905D05A
:1021600001CF00229446032906D006E0FF1DFF0898
:10217000FF0003CF8C4603E080B2042900D1C0B237
:102180000021019121072BD50399702906D0049ACB
:102190001021059B4A401A4305D00EE040216A46B3
:1021A0001176012108E06146014306D030216A46DC
:1021B00011760399517602210191049A0821059B19
:1021C0004A401A430CD16146014301D1610707D54A
:1021D00030216A461176012101910299491E02912E
:1021E0000399582904D037A103910FA90F910DE04D
:1021F00039A1F9E76146059B049AFDF7A3FF039B0C
:102200008C469B5C0F9A521E0F92137061460143DD
:10221000F0D10F9807A9081A20300390600704D561
:10222000012000048443029801E0012002900399F8
:10223000884201DD401A00E0002041180290019818
:1022400009180098401A0090E00306D42146149B18
:10225000139A009800F05AF886190020049008E0BC
:1022600006A9085C149A139990470498401C761CA0
:10227000049001998842F3DBE0030CD52146149BBE
:10228000139A009800F042F8861904E0149A30205E
:1022900013999047761C0299481E02900029F5DC9C
:1022A00008E00F980F990078491C0F91149A139920
:1022B0009047761C0399481E03900029F1DCFBE649
:1022C000092801003031323334353637383961620C
:1022D00063646566000000003031323334353637D0
:1022E000383941424344454600000000F8B50446F1
:1022F00000251E461746880404D405E039462020F0
:10230000B0476D1C641EF9D52846F8BDFFB50446DC
:10231000002581B01E46C80301D5302700E02027E4
:10232000880404D505E038460399B0476D1C641E47
:10233000F9D5284605B0F0BD0A68531C0B60107033
:102340007047000010B50021054800F0E1FC0321B2
:10235000034800F0DDFC024800F0E2FC10BD000084
:102360000008004010B50021034800F0D1FC0248ED
:1023700000F0D6FC10BD0000000C004070B588B025
:1023800029A101A8FFF7AEFC06A807AB04AA29A162
:10239000009001A8FDF72CFF04A92948FDF714FFC0
:1023A0002749461A03213046FDF7B8FE451C7D211A
:1023B00009010698401A069006240A210698FDF79E
:1023C000ADFE30301F4908550A210698FDF7A6FEDC
:1023D00030311C4A601C11540A212846FDF79EFE2C
:1023E0003030C1B2174AE01C11540A212846FDF7CB
:1023F00095FE3031134A201D11540A210798FDF72C
:102400008DFE3030C1B20F4AA01D11540A21079829
:10241000FDF784FE30310B4AE01D115411460AA02D
:10242000FFF750FC08B070BD4D6179203137203284
:10243000303236002573202564202564000000001A
:102440006436000800000020536F66745F566572A2
:10245000733A2025730D0A0000B589B0002005905D
:1024600006900790089014216846FDF7A2FE02200E
:1024700000F03AFC042000F037FC082000F034FCA7
:10248000012000F031FC01200003009000200190A9
:102490000220029069460520000700F0AFFA1020E4
:1024A000009000200190012002906946052000075D
:1024B00000F0A4FA1020009001200190002002906A
:1024C0000120039069464E4800F098FA10214C48CC
:1024D00000F0CCFA01208002009001200190002041
:1024E0000290039069460520000700F087FA012159
:1024F00089020520000700F0B9FA20200090012091
:102500000190002002900120039069463C4800F0B1
:1025100075FA20213A4800F0A9FA0520C00200907F
:102520000120019000200290012003906946344868
:1025300000F064FA0120C0023149886100BF8100C7
:102540002F4800F093FA01204003009000200190F2
:10255000029069462B4800F051FA2B480590012063
:10256000069002200790089005A800F077F9012056
:1025700000030090012002906946214800F03EFAD5
:102580002148401E05900120089005A800F066F93A
:102590000120800300906946194800F02FFA1A487C
:1025A000401C059005A800F059F90120C0030090D7
:1025B0006946134800F022FA1348801C059005A8CC
:1025C00000F04CF903210720FFF730FC0720FFF74C
:1025D000A9FB0120009069460C4800F00FFA032087
:1025E000400605900320089005A800F037F9032164
:1025F0000520FFF71BFC0520FFF794FB09B000BD89
:1026000000040050000800500D000006000C0050AF
:1026100010B5044622460321014800F067FC10BDB6
:102620000008004070B504460D462146054800F0FC
:102630002AFD00BF4021034800F0D9FC0028F9D052
:10264000204670BD0048004000B585B014216846A2
:10265000FDF7AFFD02201149C96A01430F4AD1625B
:1026600000BF00BF00BF00BF032000020090012098
:10267000019000200290012003906946084800F074
:10268000BDF9FF210131064800F01FFA012149027E
:10269000034800F01AFA05B000BD00000010024027
:1026A0000004005000BF0E484068012108430C4957
:1026B000486000BF00BF00BF0948406802210840D1
:1026C00040080028F7D000BF06480749086000BF4F
:1026D0000420486000BF00BF0448086000BF704786
:1026E000401002405555000000300040CCCC0000A6
:1026F00000B585B014216846FDF75BFD022000F0AF
:10270000F3FA012080030090012001900290002044
:1027100003906946024800F071F905B000BD000061
:102720000004005000F0C4FC00F02CFE00F068FE35
:1027300000F09CFE00F0D6FE16A11AA0FFF7C2FA28
:102740001FA0FFF7BFFAFFF719FEFFF7D1FF00F058
:102750005BF8FFF781FE00F07FFD00F09FFDFFF7C3
:10276000F1FD00F0CDFD00F0E3FDFFF7FBFDFFF70D
:1027700099FF00F08BFCFEF759FAFEF7F7FB08E033
:10278000FEF7E6FF00BF17481749086000BFFEF7D5
:10279000CDFEF5E748453431355F4D425F56342E66
:1027A000303100002A2A2A2A2A2A2A2A2A25732A8C
:1027B0002A2A2A2A2A2A2A2A2A200D0A0000000068
:1027C0000D0A6275696C64284D61792031372032B9
:1027D000303236202D2031363A33373A3134292001
:1027E0000D0A0000AAAA00000030004030B50346E0
:1027F000002405E00D781D70491C5B1C651CACB203
:102800009442F7DB30BD000006480069042108430C
:10281000044908610846006901210843014908612B
:102820007047000000E000E0C206D20E0121914096
:10283000014A9160704700000018024001460648B6
:102840008068CB06DB0E01229A401040002801D0A0
:10285000012070470020FCE700180240F0B5032477
:10286000640601682140002969D0017A8A07920F25
:102870000168584C6468CE06F60E0125B540AC439D
:10288000544D6C6000BF01682C462468CE06F60EDD
:102890000125B540AC434F4D2C6000BFD107C90F97
:1028A000002910D001682C462468CE06F60E0125BA
:1028B000B540AC43CE06F60E0125B5402C43454D40
:1028C0002C6000BF00BF02211140022910D1016815
:1028D000404C6468CE06F60E0125B540AC43CE06EA
:1028E000F60E0125B5402C433A4D6C6000BF00BF89
:1028F0000324640601682140A14220D1C468016814
:1029000003256D060D4003267606B54215D1C9068E
:10291000C90E304D5035CE08B600AD594E07F70EF2
:102920000726BE40B5434E07F60E2746B7403D4347
:10293000284E5036CF08BF00F55100BF00BF0179C7
:102940008B079B0F0168234C4034246BCE06F60E98
:102950000125B540AC431F4D40352C6300BF0168D5
:102960002C46646BCE06F60E0125B540AC43194DDE
:1029700040356C6300BFD907C90F002911D0016829
:102980002C46246BCE06F60E0125B540AC43CE0690
:10299000F60E0125B5402C430E4D40352C6300BF8B
:1029A00000BF02211940022912D10168094C4034AC
:1029B000646BCE06F60E0125B540AC43CE06F60E8E
:1029C0000125B5402C43034D40356C6300BF00BF6B
:1029D000F0BD00000018024002461069084088421D
:1029E00001D1012070470020FCE702461069084031
:1029F000884201D1012070470020FCE7F8B5074666
:102A00000C460025002621E00121A940206808404D
:102A10000646002E19D031463846626800F057F855
:102A200031463846A26800F067F8606802280CD189
:102A3000FF2E05D831463846226900F01DF804E023
:102A400031463846226900F029F86D1C2068E840BC
:102A50000028D9D16068012802D06068022804D11A
:102A60003846E268216800F03FF8F8BD816270479F
:102A7000816270478162704730B5046A0B464B43F0
:102A80004B434B431D01ED1A2346AB430C464C43CD
:102A90004C434C4354432343036230BD30B50B0ACF
:102AA0005B430C0A63430C0A63431C01E41A436A48
:102AB000A3430C0A64430D0A6C430D0A6C43544350
:102AC0002343436230BD816170478161704730B5F7
:102AD00003680C464C4365006419A3430C464C4301
:102AE00054432343036030BD10B543688B430C4609
:102AF00054432343436010BD30B5C3680C464C4378
:102B000065006419A3430C464C4354432343C360FC
:102B100030BD00000449496B0143034A516300BFC3
:102B200000BF00BF70470000001002400449496B1D
:102B30000143034A516300BF00BF00BF704700005C
:102B40000010024070B5002400F07CF8054600BF7C
:102B500005488068072109020840060A2846F04017
:102B60000446204670BD00000010024070B50026EB
:102B7000FFF7E8FF054600BF074880680721090303
:102B80000840040B032C01D22E4603E0E41E284625
:102B9000E0400646304670BD0010024070B5002689
:102BA000FFF7D0FF054600BF0748806807210904EA
:102BB0000840040C032C01D22E4603E0E41E2846F4
:102BC000E0400646304670BD00100240F8B50020D7
:102BD0000090002600BF1848C068C007C00F00283A
:102BE00001D0164E00E0164E1348C068F821084088
:102BF000C4081148C068072109020840050A002CD2
:102C000000D12024002D00D108253146614308461B
:102C10002946FDF76DFA06460748C06803214904B6
:102C20000840470C0120B84001463046FDF760FAE5
:102C300000900098F8BD00000010024000127A00D9
:102C40000024F40070B50024002500BF17488068F8
:102C50003821084010280CD004DC002814D00828A3
:102C600011D104E0182808D020280CD108E0104C1D
:102C700019E0FFF7ABFF044615E07D24240212E0C3
:102C80000124E4030FE000BF084800680321C902E3
:102C90000840C10A01208840054629460548FDF73D
:102CA00027FA044600BF00BF204670BD0010024056
:102CB00000127A000024F4000449C96A0143034A5F
:102CC000D16200BF00BF00BF70470000001002408B
:102CD0000449C96A0143034AD16200BF00BF00BF73
:102CE00070470000001002400449C96A0143034ACA
:102CF000D16200BF00BF00BF70470000001002405B
:102D000010B5026A8C000123A3409A43026210BDF1
:102D100010B5026A8C000123A3401A43026210BD61
:102D200001680122114301607047000010B58A68F4
:102D3000C26200BF0268E0239A430B691A43026033
:102D40004A6803687024A3431343036000BFCA6842
:102D5000036803242402A3431343036000BF0A68EB
:102D6000826200BF0122426100BF024AD343036175
:102D700000BF10BD5F1E0000FEB505460E4614469E
:102D800021462846FFF7BCFF204601953168029195
:102D9000C207D20F002A00D100E008221746022203
:102DA0000240002A00D100E004220092019A13465A
:102DB0001833009A99180A687323BB409A43029B00
:102DC000BB401A430A6000BFB068296AA300022210
:102DD0009A409143A200034693401943296200BFE1
:102DE000F06808281CD120460295C207D20F002A9D
:102DF00000D100E00822019202220240002A00D104
:102E000000E004220092029A13461833009A99189F
:102E10000A680827019B9F403A430A6000BF1CE0F4
:102E200020460295C207D20F002A00D100E00822F6
:102E3000019202220240002A00D100E00422009206
:102E4000029A13461833009A99180A680827019BBA
:102E50009F40BA430A6000BF00BF306904281CD1FC
:102E600020460295C207D20F002A00D100E00822B6
:102E7000019202220240002A00D100E004220092C6
:102E8000029A13461833009A99180A680427019B7E
:102E90009F403A430A6000BF1CE020460295C207EB
:102EA000D20F002A00D100E0082201920222024043
:102EB000002A00D100E004220092029A134618333F
:102EC000009A99180A680427019B9F40BA430A6038
:102ED00000BF00BF7068A3002A46343299180A6800
:102EE000120C120402430A6000BFFEBD30B58D0013
:102EF000044634342B191C68240C240414431C602D
:102F000030BD0000F3B581B004462548844203D1AA
:102F1000FFF744FE06461BE02248844201D101200F
:102F200000E0002020498C4201D1012100E0002175
:102F300008431E498C4201D1012100E000210843D1
:102F4000002803D0FFF712FE064601E00120FEBD77
:102F500000BF27680121C9030F4000BF0846874210
:102F600008D172000299490850180299FDF7C0F87B
:102F700005460BE0002F07D10299490888190299EC
:102F8000FDF7B6F8054601E00120E0E7102D05D376
:102F90000748854202D8E5600020D8E70120D6E73F
:102FA000003801400044004000480040004C004010
:102FB000FFFF00000162704702680A430260704729
:102FC0000168012211430160704702461068084001
:102FD000884201D1012070470020FCE7024690683A
:102FE0000840884201D1012070470020FCE70246DA
:102FF000D0690840884201D1012070470020FCE7D9
:103000000246D0690840884201D101207047002063
:10301000FCE770B504460D46E868216801221203FA
:1030200091430143216000BF2869616803221203B4
:1030300091430143616000BF686821680122D203A7
:1030400091430143216000BF286821680C2291430D
:103050000143216000BF68692168D20191430143A7
:10306000216000BFA869A168521091430143A1608B
:1030700000BF2046A968FFF745FF002801D00120C6
:1030800070BD0020FCE78162704700000020064907
:1030900008800846008810218843103002490880C3
:1030A0000020024908707047760000207800002058
:1030B00070B502203A490968890889000143384AF5
:1030C000116000BF00BF37480068911508433549BB
:1030D000086000BF00BF00BF3248006801218902BC
:1030E0000840800A0028F6D0002060210122520208
:1030F00013022C4CE4682C4D2C4005461D430D4317
:1031000015432C43274DEC6000BF00BF28460068E4
:10311000D10308432946086000BF00BF00BF214813
:103120000068012149060840400E0028F6D000BF83
:103130001C48C068491208431A49C86000BF0220F1
:103140008968C908C9000143164A916000BF00BFE1
:1031500000BF14488068382108401028F8D10020AA
:103160001049896807221202914301430D4A916078
:1031700000BF00BF11468968072212039143014333
:10318000084A916000BF00BF1146896807221204F7
:1031900091430143034A916000BFFEF721FA70BDDD
:1031A000002002400010024006F8F9FF10B5244844
:1031B00080880A281FDB2348006803281BD9214880
:1031C0000068C4B200201E4988801E48006882B290
:1031D0001D491E48FFF70AFB40211B48FCF7E9FF89
:1031E00000201849086021461848FDF767FF402174
:1031F0001648FCF7DEFF124800890A281FDB144836
:10320000006804281BD312480068C4B200200C498F
:1032100008810F48006882B20E490C48FFF7E6FAB1
:1032200040210C48FCF7C5FF0020094908602146F1
:103230000648FDF7E9FF40210448FCF7BAFF10BD3E
:103240009C01002018000020DC000020A8010020C4
:10325000200000205C01002000B585B014216846E4
:10326000FCF7A7FF0120FFF733FD2020009002208C
:10327000019000200290022004906946052000077A
:10328000FFF7BCFB802000900420049069460520D5
:103290000007FFF7B3FB05B000BD000000B58BB021
:1032A000142106A8FCF785FF142101A8FCF781FF73
:1032B0000420FFF73BFC0020069007907D20C00013
:1032C0000890002009900A9006A90C48FFF72EFDEF
:1032D0006020019000200390FF20F5300290002232
:1032E00001A90648FFF748FD7D200290032201A9AD
:1032F0000248FFF741FD0BB000BD00000008004090
:1033000000B585B014216846FCF753FF0120FFF794
:10331000DFFC402000900220019000200290052058
:10332000049069460007FFF769FB05B000BD000087
:1033300000B58BB0142106A8FCF73BFF142101A8AF
:10334000FCF737FF0820FFF7F1FB002006900790FD
:103350007D20C0000890002009900A9006A9084826
:10336000FFF7E4FC6020019000200390FF207830FC
:103370000290002201A90248FFF7FEFC0BB000BD3D
:10338000000C004010B586B0142101A8FCF711FF15
:103390004020FFF7CBFB164916480068FCF7A8FE53
:1033A000441E0194002002906320039000200490AA
:1033B000059001A91048FFF7B9FC01200E49C96822
:1033C00001430D4AD16000BF1046FFF7A9FC002160
:1033D0001220FEF7EFFC1220002805DBC206D20EF9
:1033E00001219140054A116000BF06B010BD0000E8
:1033F00000350C00940000200010004000E100E0C7
:1034000000B585B014216846FCF7D3FE0120FFF714
:1034100053FC0220FFF750FC062000900220019090
:10342000012002900490694605200007FFF7E6FAA4
:10343000C02000900120049069460B48FFF7DEFA97
:10344000052000900420049069460748FFF7D6FA4B
:103450000A20009004200490694605200007FFF729
:10346000CDFA05B000BD00000004005000B587B0E3
:103470001C216846FCF79DFE01204004FFF74AFB33
:1034800001208004FFF746FB0120C004FFF742FB48
:10349000E120400202900C20009000200690059050
:1034A0000490039069460C48FFF7B3FD4B20C00120
:1034B000029069460948FFF7ACFD69460848FFF7E6
:1034C000A8FD0648FFF77CFD0348FFF779FD044897
:1034D000FFF776FD07B000BD004800400044004003
:1034E000004C004010B520210C48FFF765FD01217C
:1034F0001A20FEF723FC1A20FEF708FC20210848BA
:10350000FFF75AFD20210748FFF756FD01211B2038
:10351000FEF714FC1B20FEF7F9FB10BD0044004031
:1035200000480040004C004010B504462848008880
:103530004008400026490880002026490870012CD8
:1035400016D12348008802218843801C2049088026
:1035500008460088042188431D49088008460088E1
:10356000082188431A4908800120FEF711F82DE050
:10357000022C16D11648008802218843144908807D
:103580000846008804218843001D11490880084628
:103590000088082188430E4908800220FDF7F8FFC3
:1035A00014E0032C12D10A480088022188430849FC
:1035B0000880084600880421884305490880084699
:1035C00000880821884308300149088010BD0000A8
:1035D000760000207800002010B50121C9020248C1
:1035E000FFF746FA10BD00000004005010B501219D
:1035F000C9020248FFF767FA10BD0000000400503E
:1036000010B5012149030248FFF75DFA10BD000023
:103610000004005010B5012149030248FFF728FAC1
:1036200010BD00000004005010B5FFF7DFFFFFF7EA
:10363000F1FF10BD10B5FFF7CFFFFFF7EBFF10BD97
:1036400010B5FFF7D3FFFFF7DBFF10BD010002004D
:103650000400060008000A000C00100020004000D2
:10366000800000014A616E4665624D617241707270
:103670004D61794A756E4A756C4175675365704F37
:1036800063744E6F76446563000000000100000023
:10369000020000000400000008000000100000000C
:1036A0002000000040000000800000000100000039
:1036B0000100000001000000010000000200000005
:1036C000040000000800000010000000DDDDDDDD6A
:1036D000DCBBBBDDDDDDDDDDDDDDDDDD98888888A3
:1036E000888888887777777777888888855555564A
:1036F00066666666666666666668888883333332A1
:1037000022222222222222222228888D2C370008DF
:10371000000000209C000000A41E0008C83700081C
:103720009C0000205C050000B41E000856342E30BA
:10373000315F32332E30312E303100000000000076
:103740000000000000000000000000000000000079
:10375000000000000001020304050607081112130F
:1037600014151617180000000000000000000000EB
:103770000000000000000000000000000000000049
:103780000000000000000000000000000000000039
:103790000000000000000000000000000000000029
:1037A0000000000000000000000000000000000019
:1037B0000000000000000000000000000000000009
:0837C0000024F40000000000E9
:04000005080000C12E
:00000001FF
