:020000040800F2
:10000000E8050020D5000008DD000008DF0000083A
:1000100000000000000000000000000000000000E0
:10002000000000000000000000000000E1000008E7
:100030000000000000000000E3000008E5000008E8
:10004000E7000008E7000008E7000008E7000008F4
:10005000E7000008E7000008E7000008AD0A000814
:10006000E7000008E7000008E700000800000000C3
:10007000E70000080000000000000000E7000008A2
:10008000E7000008E7000008B9180008E7000008CA
:10009000E7000008E700000800000000E700000893
:1000A000E7000008C51D0008E11B0008991C0008B6
:1000B000E7000008E7000008E7000008E700000884
:1000C0000348854600F032FA00480047C52800087A
:1000D000E80500200448804704480047FEE7FEE7A3
:1000E000FEE7FEE7FEE7FEE799180008C1000008FA
:1000F00030B50B46014600202022012409E00D46C0
:10010000D5409D4205D31D469540491B2546954047
:1001100040191546521E002DF1DC30BD70B500248B
:100120002546002801DA01244042002901DA012590
:100130004942FFF7DDFFAC4200D04042002C00D026
:10014000494270BDF0B51FB40646002082B0054696
:100150004024019100901BE0019922460F46304651
:1001600000F08BF9049A059B801A994110D3104630
:100170001946224600F071F9361A8F41019722463E
:1001800001200021009F00F068F938184D410090CF
:100190002046641E0028DFDC019B00982946324679
:1001A00007B0F0BDD2B201E00270401C491EFBD284
:1001B00070470022F6E710B513460A460446194672
:1001C000FFF7F0FF204610BD30B505462A460B4626
:1001D00010781C78521C5B1C002801D0A042F7D07C
:1001E000002C03D0002802D06D1CEFE7284630BD5C
:1001F0000FB400B58DB009900B9010A900200091AC
:10020000C0430A9000200C900648069006480790CC
:100210006A4609A80F9900F057F90DB008BC04B060
:1002200018470000E904000809050008FFB5002789
:10023000FF4383B000205C6801909E681D46A96959
:100240007F1C049888470090296A88470028F6D1C7
:100250000098401C0CD0032040028443002E19DD7E
:10026000600614D500982B2809D02D280FD103E063
:100270000020C04307B0F0BD012080020443A969FB
:100280007F1C04988847761E0090002E02DD00989F
:10029000302803D00598002825D035E00120400201
:1002A0000443A969761E7F1C049888470090002E9D
:1002B00003DD782805D0582803D00598002810D0F1
:1002C00022E00598002801D010281DD1012040020D
:1002D0008443A969761E7F1C0498884700901020EB
:1002E00002E0082000E00A2005900DE0012149020B
:1002F0000C43059A0199761E514308180190A9698B
:100300007F1C049888470090002E05DD0599009811
:1003100000F0C4F80028E9DAE96904988847A005E4
:1003200002D40120C043A5E7E00722D1600611D521
:100330006005019800D5404229680A1D2A600968B5
:10034000220501D5087014E0220701D5088010E0CD
:1003500008600EE02868011D29600068210502D5AB
:100360000199017005E02107019901D5018000E0A4
:10037000016038467EE7FFB5002083B000905068EA
:1003800001909169144600269768049888470546AD
:100390000C990698084305D009E0A169761C0498D9
:1003A00088470546216A284688470028F5D1681CF9
:1003B00003D00198C00704D017E00020C04307B065
:1003C000F0BD2068011D2160006800900DE00198DB
:1003D000C00704D1009805700098401C0090A169E6
:1003E000761C7F1E049888470546002F1CDD681C7C
:1003F0001AD0069800280FD0E817C00E40194111F6
:100400008A0006994009511840012A1A09680120FA
:1004100090400142DBD107E00C980028D7D1216A37
:10042000284688470028D2D0E16904988847019877
:100430000C99C007C00F084302D100980021017039
:10044000A068B84204DD0C98002804D0002F02D028
:100450000120C043B3E73046B1E710B5202A04DBE2
:100460000146203A9140002010BD914020239C1A63
:100470000346E3401943904010BD10B5202A04DB29
:100480000846203AD040002110BD0B46D340D04052
:100490002024A21A91400843194610BD3A2800D2E0
:1004A0003038202302469A43412A01D31046373878
:1004B000884201D30020C0437047000002681378CF
:1004C000511801601846704710B5D1600449516158
:1004D0000449116200211161114600F041F810BD7C
:1004E000BD040008510500084268002A08D00168D0
:1004F0000B78491C002B03D0521E06C018467047CB
:100500000121C160881E70474268002A0BD0C36871
:100510000168002B07D183688B4204D0491E521C0E
:1005200006C0002070470020C0437047064C0125DC
:10053000064E05E0E36807CC2B430C3C984710348B
:10054000B442F7D3FFF7C0FD483A0008683A000804
:1005500010B50F21C0B2490200F09CF910BD000097
:10056000F3B58DB000200A9001200B9000260846BC
:100570000C300C46099062690121099890470500EA
:100580002ED0252D2DD0216A8847002818D06269E9
:10059000012109989047216A88470028F7D1411E18
:1005A00062690998904700E0761CA1690D98884718
:1005B000216A88470028F7D1E1690D988847DAE772
:1005C000A1690D9888470746A84201D1761CD2E759
:1005D000E1690D9888477F1C02D10A98002877D0DE
:1005E00046E1002762693D463946099890472A2826
:1005F0000CD16269012109989047012506E00A2182
:100600004F433F18303FEBD410200543626901216E
:1006100009989047014630390A2903D29A498F42F6
:10062000DEDCECE7E90600D4984F6C280AD04C28B1
:1006300010D0682824D06A282ED074280CD07A28AC
:100640000AD00DE062690121099890476C2823D0F7
:1006500004211CE02020054362690121099890478C
:10066000A760656065284FD026DC582839D01ADC91
:10067000452849D012DC252834D04128B0D143E0A8
:100680006269012109989047682802D008210D432A
:10069000E6E70120C002DEE70220DCE7462833D08F
:1006A00047282CD130E05B287BD061282CD06328F0
:1006B00077D0642823D15EE06F284CD009DC66280F
:1006C00022D0672820D0692826D06E2817D12EE0A6
:1006D000CAE070284AD073286CD075284BD078288F
:1006E0000DD150E0A1690D9888470546252800D115
:1006F0006CE7E1690D9888476D1C00D16DE7B7E0A4
:100700000A2248E00A224FE0012023466A46C043FD
:100710000D99C046C046A0E02846402108436060CD
:10072000A807234601D5002235E000223CE02068DE
:10073000011D21600068290501D506701BE7290706
:1007400001D5068017E7A90703D5F11706604160B8
:1007500011E706600FE72846402108436060A807BC
:10076000234601D5082216E008221DE04849284604
:100770000840606016E02846402108436060A807F2
:100780002346BFD5BCE72846402108436060A80740
:1007900008D5234610220120C0430D99C046C0460B
:1007A0005BE007E0234610220120C0430D99FFF7CC
:1007B0003DFD52E000210C910B460091632802D0D0
:1007C0005B2807D043E0E80601D40120A0600120A7
:1007D00000903CE062690121099890475E2805D1AC
:1007E00001200C900146626909989047216900290F
:1007F00006D10B4601AA8F00491CD3510829FADB08
:10080000002835D0216900290ED1C117C90E091859
:100810004A11930001AA9A1849094901411A012075
:100820001368884003431360626901210998904767
:100830005D28E5D10C98002808D0002001AB81008C
:100840005A58401CD2435A500828F8DB01AB01200B
:100850002246C0430D99FFF78EFD00280ADA401C9E
:1008600006D10B98002803D00020C0430FB0F0BD84
:100870000A98FBE7E90702D10A99491C0A91361840
:1008800000200B9077E60000CCCCCC0CFFFFFF7F64
:10089000F1F7FFFF7F2801D9002207E0054B42084E
:1008A0009A5CC00700D112091207120F0120904074
:1008B00008407047083A000810B5044637480078E9
:1008C000C007C00F002805D0344800780006C00FCC
:1008D000002800D010BD002C0CD100203049087039
:1008E0003049087003F044F8FF21F531084602F062
:1008F00031F950E0012C10D1012029490870294913
:10090000087000202849088003F036F8FF2178316C
:100910004B20C00002F01EF93DE0022C10D1012056
:100920001F4908701F49087000201F49088003F004
:1009300027F84B21C900FF20783002F00BF92AE09C
:10094000032C13D1002016490870012015490870A6
:10095000AA201649088000201349088003F00CF8EB
:10096000FA214B20C00002F0F5F814E0042C12D15B
:1009700000200B49087001200A490870AA200B4981
:10098000088000200849088002F0FAFF4B21C900C6
:10099000FA2002F0DFF800BF9CE7000066000020AC
:1009A00072000020710000206E0000206C0000200A
:1009B00070B506460C461546A6200849087010205A
:1009C0004870032088700846C67004714571FF2086
:1009D00088710721014801F041F970BDD80100205C
:1009E00010B5A620064908702020487000208870A5
:1009F000FF20C8700421024801F030F910BD00004A
:100A0000D801002010B50446A6200749087011201F
:100A10004870012088700846C470FF2008710521C5
:100A2000014801F01BF910BDD801002010B50446A3
:100A300003E07D20C00000F0F9FA2046611E8CB270
:100A40000028F6D110BD000031B5002464210098C3
:100A5000FFF74EFB04460CE000BF11481149086047
:100A600000BF00201049086000BF0F4800686428DC
:100A7000FBD32046641E0028EED100BF0848094978
:100A8000086000BF64210098FFF732FB0C4600208D
:100A90000549086000BF04480068A042FBD338BD88
:100AA000AAAA0000003000404C00002070B5454864
:100AB00002F07CF8002805D0424802F06DF80120D1
:100AC000414908603F48801C02F070F800280FD0B0
:100AD0003C48801C02F060F801203B4908603B481C
:100AE0000078002804D13A480088401C3849088022
:100AF0000320400602F05AF800280FD003204006D9
:100B000002F04AF801203049086030480078002897
:100B100004D130480088401C2E4908802948401CD8
:100B200002F044F800280FD02648401C02F034F8A8
:100B300001202549086025480078002804D0254870
:100B40000088401C234908801E48401E02F02EF8F1
:100B500000280FD01B48401E02F01EF801201A4941
:100B600008601A480078002804D019480088401C02
:100B7000174908801648008816490988884202DA11
:100B80001348008801E01348008805461048008893
:100B900010490988884202DD0D48008801E00D48AF
:100BA00000880446122C0BDBA81C80B2A04202DB9A
:100BB000012009490870002005490880054908807E
:100BC00070BD00000D0000065C00002065000020E4
:100BD00060000020620000206400002010B526485C
:100BE0000078C007C00F002800D110BD224800883F
:100BF00080218843803020490880084600880221EF
:100C000088431D49088008460088042188431A4902
:100C1000088008460088082188431749088008464C
:100C20000088202188431449088008460088402114
:100C300088431149088002F09BFE0021084601F01C
:100C400089FF002001F0C6FE002000F06BFD0A20A5
:100C5000FFF7FAFE002000F08DFD0A20FFF7F4FEFA
:100C6000012000F04BFD0120FFF7CCFE03A001F0B6
:100C70001BF900BFB9E7000066000020656E7465CF
:100C800072207374616E6462790D0A0008B50021E8
:100C9000009102226946002000F09EFC6846008810
:100CA00008BD000070B5FF2101311C4802F098F822
:100CB000012000F003FD062000F0B8F9FF2101310A
:100CC000164802F0B8F801214902144802F0B3F8BE
:100CD000062000F0ABF9002400250CE001214902B8
:100CE0000E4802F03AF8012148400446002C00D09A
:100CF00003E0681C85B2FA2DF0DB00BF062000F08F
:100D000095F9FF210131054802F06AF8062000F04C
:100D10008DF9002000F0D2FC204670BD0004005088
:100D200010B501F023FD10BDFFB581B00446154696
:100D30001E46FE20044001222046029900F094F84D
:100D40000746002F07D03146284600F05BF8002800
:100D500001D0012000E00020074600F0FDF83846F1
:100D600005B0F0BDFFB581B0074614461D46002210
:100D70003846029900F078F80646002E07D029463A
:100D8000204600F041F9002801D0012000E00020B9
:100D9000064600F0E1F8304605B0F0BD70B5082514
:100DA0000024012000F08AFCA901154802F043F854
:100DB000062000F03BF91AE0FF210131104802F053
:100DC0003AF86006040E012149020D4801F0C5FF02
:100DD000002801D001200443062000F027F9FF215C
:100DE0000131074801F0FCFF122000F01FF92846EE
:100DF000691ECDB20028DFD100F060FC204670BD36
:100E00000004005070B504460D460AE0FFF7C6FF27
:100E10002070641C002D02D100F05AF801E000F0AF
:100E200007F82846691ECDB20028EFD1012070BD19
:100E300010B5012149020B4801F0D2FF062000F055
:100E4000F5F8FF210131074801F0F5FF122000F00D
:100E5000EDF8FF210131034801F0C2FF062000F048
:100E6000E5F810BD0004005070B504460D46164666
:100E700000F04AF8204600F08BF800280DD1012040
:100E8000FFF7D4FD00F040F8204600F081F800287C
:100E900003D100F061F8002070BDE8B200F078F8EE
:100EA000002803D100F058F80020F5E7012E0CD1FE
:100EB00000F02AF801212143084600F069F80028D3
:100EC00003D100F049F80020E6E70120E4E7000044
:100ED00010B5012149020B4801F0ADFF062000F0DA
:100EE000A5F8FF210131074801F0A5FF122000F00D
:100EF0009DF8FF210131034801F072FF062000F048
:100F000095F810BD0004005010B5002000F0D6FB8D
:100F1000012149020F4801F08EFF062000F086F8FB
:100F2000FF2101310B4801F086FF062000F07EF81A
:100F300001214902074801F053FF062000F076F82E
:100F4000FF210131034801F04BFF062000F06EF84D
:100F500010BD00000004005010B5002000F0AEFBF2
:100F600001214902094801F03BFF062000F05EF82C
:100F7000FF210131054801F05EFF062000F056F820
:100F800001214902014801F056FF10BD0004005044
:100F900070B504460825002000F090FB690119484F
:100FA00001F01EFF062000F041F823E080202040E1
:100FB000002805D001214902124801F03CFF04E05D
:100FC000012149020F4801F00BFF6006040E0620C4
:100FD00000F02CF8FF2101310A4801F02CFF12200B
:100FE00000F024F8FF210131064801F0F9FE062047
:100FF00000F01CF82846691ECDB20028D6D1FFF7B4
:1010000051FE70BD0004005070B504460D4606E068
:101010002078641CFFF7BCFF002800D170BD284673
:10102000691ECDB20028F3D10120F7E700E000BF30
:101030000146421E90B20029F9D1704710B5062131
:101040000648FFF7B6F8552004490870AA204870F2
:101050000622002000F0B7FE10BD00007A0000203C
:1010600010B5FFF713FE04461348844219D1134804
:1010700000210180418004220146022000F0ACFAE8
:101080000E48407800020D49097840180C49488004
:101090000A48C078000209498978401808498880C0
:1010A00005E0FFF7CBFF06210548FFF782F804486B
:1010B00040880449088010BD55AA00007A0000202D
:1010C000740000208000002010B52F48808805287B
:1010D00000DA10BD00202C49888001F07EFB00283A
:1010E00017D02A480078401C284908700846007824
:1010F00002281BDB0220087025480078002815D143
:1011000001202349087000202249087000F0A4F94A
:101110000CE01E480078002805DD1C480078401EC1
:101120001A49087002E00020194908701848007830
:10113000002826D101F048FB002813D0154800787C
:10114000C92804DA13480078401C12490870114875
:101150000078C82815D1012001F0A0FC022002F07F
:10116000AFFB0EE00B48007800280ADD0948007844
:10117000401E0849087008460078002801D101F097
:101180008DFC00BFA5E70000540000206A0000208D
:101190007000002069000020F3B581B0002512E145
:1011A00001984019009000980078B62800D008E116
:1011B000E81C0299884200DB09E100988078041D50
:1011C00029190298814200DD01E1009847780098D2
:1011D000C678012F25D1052C08D03246394601208A
:1011E000FFF7E6FB2819401E85B2EAE001F0F5FAA8
:1011F000002808D0324601210846FFF7D9FB2819FC
:10120000401E85B2DDE0002E03D1012002F058FB24
:10121000D3E0012E02D1FFF7E1FCCEE000F074F93B
:10122000CBE0022F78D1052C08D032463946012078
:10123000FFF7BEFB2819401E85B2C2E06548007862
:10124000C007C00F002805D0624800780006C00F14
:10125000002808D0324639460120FFF7A9FB28199B
:10126000401E85B2ADE0002E12D15A4800881021F0
:1012700088435849088008460088402188435549DA
:101280000880002000F076FA0220FFF7BBFB94E014
:10129000012E13D14F4800881021884310304D494A
:1012A000088008460088402188434A490880012078
:1012B00000F060FA0320FFF7A5FB7EE0022E14D1B8
:1012C000444800881021884310304249088008466D
:1012D00000884021884340303E490880022000F0C9
:1012E00021FA0420FFF78EFB67E0032E15D1394861
:1012F00000884021884340303649088008460088ED
:1013000010218843103033490880022000F00AFA87
:101310000420FFF777FB50E01BE0042E13D12D488B
:101320000088402188432B49088008460088102106
:101330008843103027490880002000F0F3F902208C
:10134000FFF760FB39E0324639460120FFF730FBFA
:1013500033E0032F1CD1052C0DD1042E0BDC1D48CE
:101360000078C007C00F002805D01A480078000692
:10137000C00F002808D0324639460120FFF718FB7D
:101380002819401E85B21CE03046FFF795FA14E09C
:10139000202F0DD1042C08D0002239460120FFF760
:1013A00007FB2819401E85B20BE0FFF719FB04E08C
:1013B000324639460120FFF7FBFA2819401E85B254
:1013C00000BF681C85B20298854200DAE8E600BFDB
:1013D000FEBD000066000020F3B581B00E4600257A
:1013E0002EE0019844192078B52800D026E0E81CAA
:1013F000B04200DB26E0A078071DE819B04200DD0E
:1014000020E06078022809D1E078032812D10EA0EC
:1014100000F04AFD032002F053FA0BE06078032845
:1014200008D1E078002802D000F06EF802E0012038
:1014300002F046FAE819401E85B200BF681C85B26A
:10144000B542CEDB00BFFEBD776174657220667564
:101450006C6C0D0A0000000010B52648008840089A
:10146000400024490880084600888021884321499B
:10147000088008460088022188431E4908800846E3
:101480000088042188431B490880084600880821F9
:1014900088431849088000201749087015480088BB
:1014A000202188431349088008460088402188434A
:1014B00010490880002001F07AFA002001F010FBAA
:1014C000002001F087FA002000F02CF90A20FFF735
:1014D000BBFA002000F012F90A20FFF7B5FA00204D
:1014E00000F00CF90020FFF78DFA04A000F0DCFCFE
:1014F00010BD00006600002068000020706F776556
:1015000072206F66660D0A0010B52C480078C0077F
:10151000C00F002806D0294800780006C00F002818
:1015200000D110BD2548008840084000401C2349D8
:1015300008800846008880218843204908800846A2
:101540000088022188431D4908800846008804213C
:1015500088431A49088008460088082188431749AB
:1015600008800020164908701649087001F096FAA4
:10157000012001F01CFA012001F0B2FA02F0F8F9A2
:10158000FF21F531084601F0E5FAFF20F53001F0C2
:1015900021FA022000F0B2F80A20FFF755FA0220E3
:1015A00000F0ACF80220FFF72DFA00200649488031
:1015B00006A000F079FC00BFB3E700006600002041
:1015C000690000206800002054000020706F7765DB
:1015D00072206F6E0D0A0000F7B584B004460598BE
:1015E00001902046E117C90E091849114901611AF5
:1015F0008EB206998819C117C90E0918C9020D0CB7
:10160000002D04DD069880196901401A00E0069853
:1016100080B20390002D08D10398C3B2E1B2A0209C
:10162000019AFFF781FB07B0F0BD2020801BC3B2F9
:10163000E1B2A020019AFFF777FB02900298002800
:1016400000D1F0E70A20FFF7FFF920462030801B89
:1016500084B201982030801B0190002715E07901A9
:1016600001980A1878010019C0B2202301460090A1
:10167000A020FFF759FB02900298002800D1D2E782
:101680000A20FFF7E1F9781C87B2681EB842E6DC51
:10169000039800280FDD0398C3B2681E410101982A
:1016A0000A18681E40010019C0B201460090A0202F
:1016B000FFF73AFBB7E70120B5E7000010B586B0A9
:1016C0000446142101A8FEF774FD01204002019098
:1016D000002C01D1012000E000200290002C01D05C
:1016E000012000E0002003900120049001A902489D
:1016F00001F03CFB06B010BD0004005010B50446DC
:10170000A520074908700120487088700846C470F9
:10171000FF2008710521024800F036FB10BD0000D3
:10172000D801002010B50446A520074908700520FF
:101730004870012088700846C470FF200871052198
:10174000014800F021FB10BDD801002010B504466F
:10175000A5200749087004204870012088700846B9
:10176000C470FF2008710521014800F00DFB10BD79
:10177000D801002010B50446A520074908700320B1
:101780004870012088700846C470FF200871052148
:10179000014800F0F9FA10BDD8010020FEB5394823
:1017A000806838210840102812D004DC002848D076
:1017B000082845D104E0182807D0202840D101E0AE
:1017C000314D4DE00125ED034AE07D252D0247E036
:1017D0002C48C068C607F60F002E01D02A4C04E042
:1017E000002E01D1294C00E000242648C068F821D1
:1017F0000840C7082348C068072109020840000ABA
:101800000290002F00D120270298002801D1082043
:1018100002902146794308460299FEF769FC044686
:101820001848C068032149040840400C0190012277
:101830000198824011462046FEF75AFC05460FE00B
:1018400000BF104800680321C9020840C10A0120F6
:10185000884000900D480099FEF74AFC054600BFFD
:1018600000BF08488068072109020840000A80007C
:1018700007490C5821462846FEF73AFC05490860FE
:10188000FEBD00000010024000127A000024F400A7
:10189000C8390008840000200348044988600448CF
:1018A00004490860704700000000000800ED00E0F7
:1018B0000024F4008400002010B501201149C968FB
:1018C0000140814200D100E00021002919D001200F
:1018D0000C4909690140814200D100E00021002942
:1018E0000FD00120C143074A116100BF00F06EF81C
:1018F00001208003044949694140034A516100BF06
:1019000000BF10BD00100040000400502B490978B2
:10191000C907C90F002905D0284909784908490095
:10192000264A1170254909788907C90F002912D064
:101930002249097802229143204A1170002008E0D0
:1019400041001F4A515A491C42001D4B9952411CEB
:10195000C8B20628F4DB194909784907C90F0029DC
:1019600012D01649097804229143144A11700020BC
:1019700008E04100134A515A491C4200114B995248
:10198000411CC8B20328F4DB0C4909780907C90FC8
:10199000002912D00949097808229143074A117099
:1019A000002008E04100084A515A491C4200064BF9
:1019B0009952411CC8B20128F4DB70475200002044
:1019C0008C010020540000205A00002010B52B4844
:1019D0000088401C294908802948007840084000B8
:1019E000401C2749087027480068401C25490860AA
:1019F00022490888C117490F0918C910C900411A9E
:101A00003AD11F48007802218843801C1C49087085
:101A10001D480068401C1C4908601C480068401CA8
:101A20001A490860502115480088FEF777FB002905
:101A300022D11348007804218843001D1049087002
:101A40007D2189010D480088FEF768FB002913D12C
:101A50000B480078082188430830094908700C4871
:101A60000068401C0A490860044800880949884207
:101A700002DB00200149088010BD0000500000205A
:101A80005200002040000020440000204C000020B4
:101A900048000020409C000010B539480078C0077D
:101AA000C00F002832D13748008864282DDB002081
:101AB0003449088034480078401C33490870304865
:101AC00000788007C00F002806D008460078032859
:101AD00002DBFFF7C1FC18E0294800784007C00F7F
:101AE000002806D028480078052802DBFFF7B4FC60
:101AF0000BE0234800780007C00F002805D02248DB
:101B00000078032801DBFFF7A7FC10BD1C48007814
:101B1000C006C00F002831D01C480078002814D01F
:101B200000201A4908701749488015480078400677
:101B3000C00F002809D11248008820218843203096
:101B40000F4908800120FFF7EDFD0E4840884B212A
:101B5000C900884212DB00200A4948800848007802
:101B60004006C00F002809D105480088202188437D
:101B70002030034908800120FFF7D4FD00BFC4E7EF
:101B8000660000205400002068000020640000204F
:101B900010B50F480078002818D00E4800780028AB
:101BA00014D10D480088401C0B4908800846008865
:101BB0000A490988884209DB00200549087001F0BC
:101BC000D7FEFF21F531084600F0C4FF10BD00002C
:101BD00071000020720000206E0000206C000020C8
:101BE00010B52021194801F0B2FB002805D10121D0
:101BF000164801F0B5FB002809D00821134801F070
:101C0000B8FB002803D00821104801F095FB2021E3
:101C10000E4801F09CFB002817D020210B4801F052
:101C2000A8FB002811D00A48006840280AD200BF4B
:101C30000649496ACAB206490868411C044B196042
:101C400004490A5400200449888010BD0044004023
:101C500018000020CC0000208C01002070B5054643
:101C60000E4600BF80210B4801F08CFB0028F9D004
:101C700000240CE0295D074801F0C7FB00BF4021AC
:101C8000044801F07FFB0028F9D0601CC4B2B442C4
:101C9000F0DB70BD0044004010B52021334801F056
:101CA00056FB002805D10121304801F059FB0028DE
:101CB00009D008212D4801F05CFB002803D0082141
:101CC0002A4801F039FB2021284801F040FB002878
:101CD00017D02021254801F04CFB002811D02448C2
:101CE000006840280AD200BF2049496ACAB2204988
:101CF0000868411C1E4B19601E490A5400201E49E9
:101D0000C88020211D4801F022FB002805D10121B7
:101D10001A4801F025FB002809D00821174801F0D6
:101D200028FB002803D00821144801F005FB2021DE
:101D3000124801F00CFB002817D020210F4801F0B9
:101D400018FB002811D00E48006840280AD200BFB6
:101D50000A49496ACAB20A490868411C084B196015
:101D600008490A5400200449088110BD0048004079
:101D70001C0000200C0100208C010020004C0040C1
:101D8000200000204C01002070B505460E4600BF23
:101D900080210B4801F0F6FA0028F9D000240CE06D
:101DA000295D074801F031FB00BF4021044801F0E4
:101DB000E9FA0028F9D0601CC4B2B442F0DB70BD6F
:101DC000004C00407047F7B584B004460598019078
:101DD0002046E117C90E091849114901611A8FB24D
:101DE0000699C819C117C90E0918C9020D0C002D92
:101DF00004DD0698C0196901401A00E0069880B217
:101E00000390002D08D10398C3B2E1B2A020019A3B
:101E1000FEF7A8FF07B0F0BD2020C01BC3B2E1B29F
:101E2000A020019AFEF79EFF02900298002800D1A0
:101E3000F0E720462030C01B84B201982030C01B40
:101E400001900A20FEF700FE002615E071010198BE
:101E50000A1870010019C0B2202301460090A0208A
:101E6000FEF780FF02900298002800D1D2E70A20F6
:101E7000FEF7EAFD701C86B2681EB042E6DC0398ED
:101E800000280FDD0398C3B2681E410101980A18AB
:101E9000681E40010019C0B201460090A020FEF764
:101EA00061FFB7E70120B5E70FB410B503A9044BF4
:101EB000044A029800F0F8F810BC08BC04B01847B7
:101EC00049270008880000200FB410B504A9074B6B
:101ED00002AA039800F0E8F8044602A9002000F0E6
:101EE0001DFB204610BC08BC04B018471D25000887
:101EF000002805DBC206D20E01219140014A116083
:101F00007047000000E100E0002805DBC206D20EA9
:101F100001219140014A11607047000000E100E09A
:101F200010B5002819DB1A4A03231B02D2188308B4
:101F30009B00D2588307DC0EFF23A3409A438B07F4
:101F40001B0E8407E40EA3401A43114B0324240202
:101F50001B198408A4001A5118E00E4A03071B0F2E
:101F6000083B9B089B00D2588307DC0EFF23A3404D
:101F70009A438B071B0E8407E40EA3401A43054BBC
:101F80000407240F083CA408A4001A5110BD000047
:101F900000E100E01CED00E010B5002819DB1A4A52
:101FA00003231B02D21883089B00D2588307DC0E40
:101FB000FF23A3409A438B071B0E8407E40EA34024
:101FC0001A43114B032424021B198408A4001A513C
:101FD00018E00E4A03071B0F083B9B089B00D258D2
:101FE0008307DC0EFF23A3409A438B071B0E840755
:101FF000E40EA3401A43054B0407240F083CA40831
:10200000A4001A5110BD000000E100E01CED00E04A
:1020100010B5002819DB1A4A03231B02D2188308C3
:102020009B00D2588307DC0EFF23A3409A438B0703
:102030001B0E8407E40EA3401A43114B0324240211
:102040001B198408A4001A5118E00E4A03071B0F3D
:10205000083B9B089B00D2588307DC0EFF23A3405C
:102060009A438B071B0E8407E40EA3401A43054BCB
:102070000407240F083CA408A4001A5110BD000056
:1020800000E100E01CED00E002E008C8121F08C1FA
:10209000002AFAD170477047002001E001C1121FE9
:1020A000002AFBD170470000FFB591B00F460546EE
:1020B000002606E025280AD0149A139990476D1C33
:1020C000761C28780028F5D1304615B0F0BD0024E4
:1020D00000940121F34A029400E004436D1C2B7824
:1020E0000846203B98401042F7D128782A280ED085
:1020F000022128780246303A092A15D8009A0A2384
:102100005A43303A80180C436D1C0090F1E701CF20
:102110000090002805DA0120400304430098404263
:102120000090022004436D1C28782E2815D104202D
:10213000044368786D1C2A280AD101CF6D1C0290D7
:102140000BE002990A225143303940186D1C02906D
:102150002878014630390929F3D928786C2810D01D
:1021600006DC4C281AD068280ED06A2817D104E063
:10217000742813D07A2812D110E0012040050443BE
:102180000CE00121090501E0032109050C436978F0
:10219000814203D10120000524186D1C6D1C287894
:1021A00003906E281ED00CDC632831D004DC00289C
:1021B0008AD0582811D1B2E064287BD069280CD18C
:1021C00078E073282DD004DC6F2870D0702804D1FB
:1021D000A7E075286CD078286BD0149A1399904793
:1021E000761C62E06002400F022807D003280AD064
:1021F000042838680AD006603F1D56E03868F11799
:1022000006604160F8E738680680F5E70670F3E796
:102210003878694608740020487404A803900120A7
:1022200003E0386803900020C0433F1D61070FD5CD
:10223000002101E00199491C029A0191914213DAAF
:102240008142F7DB019A0399895C0029F2D10BE006
:10225000002101E00199491C01918142FADB019AB8
:102260000399895C0029F5D101990098139A401AC5
:1022700000902146149B00F03BF901998019461803
:1022800007E0039803990078491C0391149A139965
:1022900090470198401E0190401CF2D12146149BAA
:1022A000139A009800F014F986196D1C09E741E0B3
:1022B00033E034E00A200021049005916002410FD0
:1022C000022905D001CFC2179446032905D007E0A3
:1022D000FF1DFF08FF0003CF06E000B2C2179446BF
:1022E000042902D140B2C1178C46002261469445B0
:1022F00006DA0A460021404291418C462D2102E037
:10230000210504D52B216A461176012103E0E1075E
:1023100001D02021F7E7019154E00A200BE01020C2
:1023200009E01020049000210420044308200591B6
:10233000029003E008200021059104906002410F03
:10234000022905D001CF00229446032906D006E0D9
:10235000FF1DFF08FF0003CF8C4603E080B2042975
:1023600000D1C0B20021019121072BD5039970291A
:1023700006D0049A1021059B4A401A4305D00EE06E
:1023800040216A461176012108E06146014306D0EA
:1023900030216A4611760399517602210191049AFF
:1023A0000821059B4A401A430CD16146014301D1E3
:1023B000610707D530216A46117601210191029902
:1023C000491E02910399582904D037A103910FA9FE
:1023D0000F910DE039A1F9E76146059B049AFDF7DD
:1023E000B1FE039B8C469B5C0F9A521E0F9213709A
:1023F00061460143F0D10F9807A9081A20300390D5
:10240000600704D5012000048443029801E0012004
:1024100002900399884201DD401A00E00020411833
:102420000290019809180098401A0090E00306D421
:102430002146149B139A009800F05AF88619002040
:10244000049008E006A9085C149A13999047049830
:10245000401C761C049001998842F3DBE0030CD504
:102460002146149B139A009800F042F8861904E064
:10247000149A302013999047761C0299481E0290B6
:102480000029F5DC08E00F980F990078491C0F919E
:10249000149A13999047761C0399481E03900029BB
:1024A000F1DCFBE6092801003031323334353637B0
:1024B0003839616263646566000000003031323390
:1024C0003435363738394142434445460000000030
:1024D000F8B5044600251E461746880404D405E0D6
:1024E00039462020B0476D1C641EF9D52846F8BD3A
:1024F000FFB50446002581B01E46C80301D530272C
:1025000000E02027880404D505E038460399B04749
:102510006D1C641EF9D5284605B0F0BD0A68531C31
:102520000B6010707047000010B50021054800F0E6
:10253000B1FD0321034800F0ADFD024800F0B2FDFB
:1025400010BD00000008004010B50021034800F055
:10255000A1FD024800F0A6FD10BD0000000C0040E7
:1025600070B588B029A101A8FFF7AEFC06A807AB9B
:1025700004AA29A1009001A8FDF73AFE04A9294860
:10258000FDF722FE2749461A03213046FDF7C6FD16
:10259000451C7D2109010698401A069006240A214F
:1025A0000698FDF7BBFD30301F4908550A210698F3
:1025B000FDF7B4FD30311C4A601C11540A21284635
:1025C000FDF7ACFD3030C1B2174AE01C11540A21AE
:1025D0002846FDF7A3FD3031134A201D11540A216E
:1025E0000798FDF79BFD3030C1B20F4AA01D115472
:1025F0000A210798FDF792FD30310B4AE01D115476
:1026000011460AA0FFF750FC08B070BD4D6179205B
:10261000313720323032360025732025642025647E
:1026200000000000A039000800000020536F66740D
:102630005F566572733A2025730D0A0000B585B0A8
:1026400014216846FDF7B5FD022000F003FD0420CB
:1026500000F000FD082000F0FDFC012000F0FAFC75
:10266000012040030090002001900290694611482B
:1026700000F07CFB012000030090012002906946DD
:102680000D4800F073FB01208003009069460A4862
:1026900000F06CFB0120C00300906946064800F082
:1026A00065FB012000906946044800F05FFB05B01F
:1026B00000BD00000008005000040050000C005055
:1026C00010B5FFF7BBFF00F001F810BD1FB50020EB
:1026D00000900190029003901A4800900120019010
:1026E000022002900390684600F070FA1548401EE0
:1026F000009001200390684600F068FA1148401CE1
:102700000090684600F062FA0E48801C009068460F
:1027100000F05CFA03210720FFF77AFC0720FFF79F
:10272000F3FB03204006009003200390684600F06E
:102730004DFA03210520FFF76BFC0520FFF7E4FBB2
:102740001FBD00000D00000670B504460D4600BF19
:102750000548846200BF00BF4021034800F009FE25
:102760000028F9D0204670BD0048004000B585B073
:1027700014216846FDF71DFD02201149C96A014375
:102780000F4AD16200BF00BF00BF00BF032000029C
:1027900000900120019000200290012003906946E2
:1027A000084800F0E3FAFF210131064800F043FB3E
:1027B00001214902034800F03EFB05B000BD0000C6
:1027C000001002400004005010B510210520000741
:1027D00000F0BAFA0121484010BD10B501210903EB
:1027E0000520000700F0B0FA10BD000000B585B06C
:1027F00014216846FDF7DDFC01201149C96A014337
:102800000F4AD16200BF00BF00BF00BF012000031C
:1028100000900020019002200290694605200007E8
:1028200000F0A4FA102000900020019001200290F6
:1028300069460520000700F099FA05B000BD0000C8
:102840000010024000BF0E484068012108430C49B7
:10285000486000BF00BF00BF09484068022108402F
:1028600040080028F7D000BF06480749086000BFAD
:102870000420486000BF00BF0448086000BF7047E4
:10288000401002405555000000300040CCCC000004
:1028900000B585B014216846FDF78BFC022000F0DE
:1028A000D9FB0120800300900120019002900020BC
:1028B00003906946024800F059FA05B000BD0000D7
:1028C0000004005000F0B6FD00F01EFF00F05AFFBB
:1028D00000F08EFF00F0C8FF18A11CA0FFF7E4FA7B
:1028E00021A0FFF7E1FAFFF73BFEFFF7D1FF00F071
:1028F00043F9FFF7E5FE00F071FE00F091FEFFF7EF
:1029000013FE00F0BFFE00F0D5FEFFF71DFEFFF73F
:1029100099FF00F07DFDFEF703FAFEF7A1FBFFF73C
:1029200065FF00F061F808E0FEF7F0FF00BF174810
:102930001749086000BF00F0B9FFF5E7484534319A
:10294000355F4D425F56342E303100002A2A2A2A44
:102950002A2A2A2A2A25732A2A2A2A2A2A2A2A2A93
:102960002A200D0A000000000D0A6275696C6428B7
:102970004D61792031372032303236202D203138E8
:102980003A34363A343329200D0A0000AAAA00004E
:102990000030004030B50346002405E00D781D707E
:1029A000491C5B1C651CACB29442F7DB30BD10B512
:1029B0000446002C06D0012189020520000700F002
:1029C00038FA05E0012189020520000700F006FA27
:1029D00010BD000010B5044622460321014800F056
:1029E00047FC10BD0008004000B585B014216846C2
:1029F000FDF7DFFB012000F039FB022000F036FB81
:102A000010200090012001900020029001200390EE
:102A10006946214800F0AAF910211F4800F0DEF9AC
:102A2000012080020090012001900020029003907C
:102A300069460520000700F099F901218902052067
:102A4000000700F0CBF92020009001200190002029
:102A500002900120039069460F4800F087F9202179
:102A60000D4800F0BBF90520C00200900120019044
:102A700000200290012003906946074800F076F993
:102A80000121C902044800F0D4F901214903024898
:102A900000F0A4F905B000BD0004005010B50446D4
:102AA000002C04D01021044800F0C3F903E01021E9
:102AB000014800F093F910BD0004005010B5044621
:102AC000002C05D10121C902044800F0B2F904E04C
:102AD0000121C902014800F081F910BD0004005035
:102AE00010B50446002C04D02021044800F0A1F9C0
:102AF00003E02021014800F071F910BD00040050EE
:102B000010B50446002C05D101214903044800F00A
:102B100065F904E001214903014800F08AF910BD7C
:102B20000004005010B50020FFF7C8FF0020FFF799
:102B3000E7FF10BD10B50120FFF7C0FF0020FFF731
:102B4000DFFF10BD10B50020FFF7B8FF0120FFF731
:102B5000D7FF10BD70B504460D462246002104483B
:102B600000F086FB2A460021024800F081FB70BD80
:102B700000080040000C004006480069042108439A
:102B800004490861084600690121084301490861B8
:102B90007047000000E000E0C206D20E0121914023
:102BA000014A916070470000001802400146064843
:102BB0008068CB06DB0E01229A401040002801D02D
:102BC000012070470020FCE700180240F0B5032404
:102BD000640601682140002969D0017A8A07920FB2
:102BE0000168584C6468CE06F60E0125B540AC432A
:102BF000544D6C6000BF01682C462468CE06F60E6A
:102C00000125B540AC434F4D2C6000BFD107C90F23
:102C1000002910D001682C462468CE06F60E012546
:102C2000B540AC43CE06F60E0125B5402C43454DCC
:102C30002C6000BF00BF02211140022910D10168A1
:102C4000404C6468CE06F60E0125B540AC43CE0676
:102C5000F60E0125B5402C433A4D6C6000BF00BF15
:102C60000324640601682140A14220D1C4680168A0
:102C700003256D060D4003267606B54215D1C9061B
:102C8000C90E304D5035CE08B600AD594E07F70E7F
:102C90000726BE40B5434E07F60E2746B7403D43D4
:102CA000284E5036CF08BF00F55100BF00BF017954
:102CB0008B079B0F0168234C4034246BCE06F60E25
:102CC0000125B540AC431F4D40352C6300BF016862
:102CD0002C46646BCE06F60E0125B540AC43194D6B
:102CE00040356C6300BFD907C90F002911D00168B6
:102CF0002C46246BCE06F60E0125B540AC43CE061D
:102D0000F60E0125B5402C430E4D40352C6300BF17
:102D100000BF02211940022912D10168094C403438
:102D2000646BCE06F60E0125B540AC43CE06F60E1A
:102D30000125B5402C43034D40356C6300BF00BFF7
:102D4000F0BD0000001802400246106908408842A9
:102D500001D1012070470020FCE7024610690840BD
:102D6000884201D1012070470020FCE7F8B50746F2
:102D70000C460025002621E00121A94020680840DA
:102D80000646002E19D031463846626800F055F8E4
:102D900031463846A26800F065F8606802280CD118
:102DA000FF2E05D831463846226900F01BF804E0B2
:102DB00031463846226900F027F86D1C2068E8404B
:102DC0000028D9D16068012802D06068022804D1A7
:102DD0003846E268216800F03DF8F8BD816270472E
:102DE0008162704730B5046A0B464B434B434B43FB
:102DF0001D01ED1A2346AB430C464C434C434C4358
:102E000054432343036230BD30B50B0A5B430C0AC5
:102E100063430C0A63431C01E41A436AA3430C0A8C
:102E200064430D0A6C430D0A6C43544323434362CD
:102E300030BD816170478161704730B503680C46D1
:102E40004C4365006419A3430C464C43544323434D
:102E5000036030BD10B543688B430C465443234395
:102E6000436010BD30B5C3680C464C43650064191F
:102E7000A3430C464C4354432343C36030BD00007E
:102E80000449496B0143034A516300BF00BF00BFBF
:102E900070470000001002400449496B0143034A97
:102EA000516300BF00BF00BF704700000010024028
:102EB00070B5002400F07CF8054600BF0548806826
:102EC000072109020840060A2846F0400446204629
:102ED00070BD00000010024070B50026FFF7E8FF4B
:102EE000054600BF07488068072109030840040B16
:102EF000032C01D22E4603E0E41E2846E04006469D
:102F0000304670BD0010024070B50026FFF7D0FFBC
:102F1000054600BF07488068072109040840040CE3
:102F2000032C01D22E4603E0E41E2846E04006466C
:102F3000304670BD00100240F8B500200090002619
:102F400000BF1848C068C007C00F002801D0164E47
:102F500000E0164E1348C068F8210840C408114824
:102F6000C068072109020840050A002C00D120246E
:102F7000002D00D108253146614308462946FDF75A
:102F8000B7F806460748C068032149040840470CC3
:102F90000120B84001463046FDF7AAF8009000989D
:102FA000F8BD00000010024000127A000024F40076
:102FB00070B50024002500BF1748806838210840FC
:102FC00010280CD004DC002814D0082811D104E00B
:102FD000182808D020280CD108E0104C19E0FFF781
:102FE000ABFF044615E07D24240212E00124E40333
:102FF0000FE000BF084800680321C9020840C10A69
:1030000001208840054629460548FDF771F8044629
:1030100000BF00BF204670BD0010024000127A00C1
:103020000024F4000449C96A0143034AD16200BF85
:1030300000BF00BF70470000001002400449C96A89
:103040000143034AD16200BF00BF00BF70470000C8
:10305000001002400449C96A0143034AD16200BF1B
:1030600000BF00BF70470000001002400449C96A59
:103070000143034AD16200BF00BF00BF7047000098
:103080000010024010B5026A8C000123A3409A434D
:10309000026210BD10B5026A8C000123A3401A43DE
:1030A000026210BD016801221143016070470000F7
:1030B00010B58A68C26200BF0268E0239A430B69B8
:1030C0001A4302604A6803687024A34313430360F1
:1030D00000BFCA68036803242402A34313430360A8
:1030E00000BF0A68826200BF0122426100BF024A3B
:1030F000D343036100BF10BD5F1E0000FEB505464F
:103100000E46144621462846FFF7BCFF204601958F
:1031100031680291C207D20F002A00D100E00822D4
:10312000174602220240002A00D100E00422009249
:10313000019A13461833009A99180A687323BB4002
:103140009A43029BBB401A430A6000BFB068296AD9
:10315000A30002229A409143A200034693401943E0
:10316000296200BFF06808281CD120460295C207DA
:10317000D20F002A00D100E0082201920222024070
:10318000002A00D100E004220092029A134618336C
:10319000009A99180A680827019B9F403A430A60E1
:1031A00000BF1CE020460295C207D20F002A00D1C2
:1031B00000E00822019202220240002A00D100E031
:1031C00004220092029A13461833009A99180A684A
:1031D0000827019B9F40BA430A6000BF00BF3069C7
:1031E00004281CD120460295C207D20F002A00D124
:1031F00000E00822019202220240002A00D100E0F1
:1032000004220092029A13461833009A99180A6809
:103210000427019B9F403A430A6000BF1CE0204600
:103220000295C207D20F002A00D100E008220192C5
:1032300002220240002A00D100E004220092029AF9
:1032400013461833009A99180A680427019B9F4077
:10325000BA430A6000BF00BF7068A3002A46343238
:1032600099180A68120C120402430A6000BFFEBDDE
:1032700030B58D00044634342B191C68240C24040A
:1032800014431C6030BD0000F3B581B004462548EE
:10329000844203D1FFF738FE06461BE022488442F1
:1032A00001D1012000E0002020498C4201D1012100
:1032B00000E0002108431E498C4201D1012100E0B9
:1032C00000210843002803D0FFF706FE064601E070
:1032D0000120FEBD00BF27680121C9030F4000BFC8
:1032E0000846874208D1720002994908501802998D
:1032F000FCF7FEFE05460BE0002F07D102994908B6
:1033000088190299FCF7F4FE054601E00120E0E788
:10331000102D05D30748854202D8E5600020D8E784
:103320000120D6E70038014000440040004800403A
:10333000004C0040FFFF00000162704702680A4332
:103340000260704701680122114301607047024624
:1033500010680840884201D1012070470020FCE736
:10336000024690680840884201D101207047002041
:10337000FCE70246D0690840884201D1012070472D
:103380000020FCE70246D0690840884201D10120B4
:1033900070470020FCE770B504460D46E8682168D8
:1033A0000122120391430143216000BF2869616833
:1033B0000322120391430143616000BF68682168E2
:1033C0000122D20391430143216000BF2868216894
:1033D0000C2291430143216000BF68692168D2013A
:1033E00091430143216000BFA869A1685210914335
:1033F0000143A16000BF2046A968FFF745FF0028F0
:1034000001D0012070BD0020FCE781627047000000
:1034100000200649088008460088102188431030A3
:1034200002490880002002490870704766000020A9
:103430006800002070B502203A49096889088900AF
:103440000143384A116000BF00BF3748006891153A
:1034500008433549086000BF00BF00BF324800681C
:10346000012189020840800A0028F6D0002060214E
:103470000122520213022C4CE4682C4D2C400546CC
:103480001D430D4315432C43274DEC6000BF00BF87
:1034900028460068D10308432946086000BF00BFE2
:1034A00000BF21480068012149060840400E00285D
:1034B000F6D000BF1C48C068491208431A49C860CA
:1034C00000BF02208968C908C9000143164A9160FB
:1034D00000BF00BF00BF1448806838210840102892
:1034E000F8D1002010498968072212029143014354
:1034F0000D4A916000BF00BF114689680722120380
:1035000091430143084A916000BF00BF114689689A
:103510000722120491430143034A916000BFFEF762
:103520003DF970BD002002400010024006F8F9FF8E
:1035300010B5244880880A281FDB23480068032828
:103540001BD921480068C4B200201E4988801E484B
:10355000006882B21D491E48FFF71CFA40211B4833
:10356000FCF727FE00201849086021461848FDF79F
:1035700013FE40211648FCF71CFE124800890A2859
:103580001FDB1448006804281BD312480068C4B22B
:1035900000200C4908810F48006882B20E490C488F
:1035A000FFF7F8F940210C48FCF703FE0020094919
:1035B000086021460648FDF70FFF40210448FCF74C
:1035C000F8FD10BD8C01002018000020CC00002068
:1035D00098010020200000204C01002000B585B09B
:1035E00014216846FCF7E5FD0120FFF727FD2020A8
:1035F0000090022001900020029002200490694671
:1036000005200007FFF7B2FB802000900420049003
:10361000694605200007FFF7A9FB05B000BD0000C3
:1036200000B58BB0142106A8FCF7C3FD142101A836
:10363000FCF7BFFD0420FFF72FFC00200690079049
:103640007D20C0000890002009900A9006A90C482F
:10365000FFF72EFD6020019000200390FF20F53041
:103660000290002201A90648FFF748FD7D20029044
:10367000032201A90248FFF741FD0BB000BD000085
:103680000008004000B585B014216846FCF791FDA4
:103690000120FFF7D3FC4020009002200190002081
:1036A00002900520049069460007FFF75FFB05B014
:1036B00000BD000000B58BB0142106A8FCF779FD11
:1036C000142101A8FCF775FD0820FFF7E5FB002099
:1036D000069007907D20C0000890002009900A9075
:1036E00006A90848FFF7E4FC602001900020039041
:1036F000FF2078300290002201A90248FFF7FEFC6B
:103700000BB000BD000C004010B586B0142101A81C
:10371000FCF74FFD4020FFF7BFFB16491648006835
:10372000FCF7E6FC441E0194002002906320039005
:1037300000200490059001A91048FFF7B9FC012072
:103740000E49C96801430D4AD16000BF1046FFF71A
:10375000A9FC00211220FEF71FFC1220002805DB27
:10376000C206D20E01219140054A116000BF06B089
:1037700010BD000000350C00840000200010004047
:1037800000E100E000B585B014216846FCF711FDAA
:103790000120FFF747FC0220FFF744FC06200090C1
:1037A0000220019001200290049069460520000744
:1037B000FFF7DCFAC02000900120049069460B4816
:1037C000FFF7D4FA052000900420049069460748CA
:1037D000FFF7CCFA0A2000900420049069460520E7
:1037E0000007FFF7C3FA05B000BD00000004005059
:1037F00000B587B01C216846FCF7DBFC01204004C3
:10380000FFF73EFB01208004FFF73AFB0120C004D4
:10381000FFF736FBE120400202900C2000900020D0
:10382000069005900490039069460C48FFF7B3FD9D
:103830004B20C001029069460948FFF7ACFD69467C
:103840000848FFF7A8FD0648FFF77CFD0348FFF78F
:1038500079FD0448FFF776FD07B000BD0048004041
:1038600000440040004C004010B520210C48FFF7F8
:1038700065FD01211A20FEF753FB1A20FEF738FBE5
:1038800020210848FFF75AFD20210748FFF756FD81
:1038900001211B20FEF744FB1B20FEF729FB10BD76
:1038A0000044004000480040004C004010B5FDF7C7
:1038B0000BFCFFF73DFEFEF7EFF8FEF769F910BDD0
:1038C00010B5044628480088400840002649088072
:1038D000002026490870012C16D1234800880221B7
:1038E0008843801C204908800846008804218843BA
:1038F0001D49088008460088082188431A49088025
:103900000120FDF723FF2DE0022C16D11648008878
:10391000022188431449088008460088042188430E
:10392000001D1149088008460088082188430E4977
:1039300008800220FDF70AFF14E0032C12D10A4888
:10394000008802218843084908800846008804212D
:1039500088430549088008460088082188430830C4
:103960000149088010BD00006600002068000020AA
:1039700010B5FFF7D7F810BD10B5FFF7DBF810BD95
:1039800010B5FFF7DFF810BD0100020004000600CB
:1039900008000A000C001000200040008000000118
:1039A0004A616E4665624D61724170724D61794A3D
:1039B000756E4A756C4175675365704F63744E6FD1
:1039C0007644656300000000010000000200000072
:1039D00004000000080000001000000020000000AB
:1039E0004000000080000000010000000100000015
:1039F00001000000010000000200000004000000BF
:103A00000800000010000000DDDDDDDDDCBBBBDDFB
:103A1000DDDDDDDDDDDDDDDD98888888888888886E
:103A2000777777777788888885555556666666668E
:103A3000666666666668888883333332222222226D
:103A4000222222222228888D683A000800000020C5
:103A50008C00000088200008F43A00088C00002048
:103A60005C0500009820000856342E30315F323358
:103A70002E30312E30310000000000000000000028
:103A80000000000000000000000000000000000036
:103A90000000000000000000000000000000000026
:103AA0000000000000000000000000000000000016
:103AB0000000000000000000000000000000000006
:103AC00000000000000000000000000000000000F6
:103AD00000000000000000000000000000000000E6
:103AE0000000000000000000000000000024F400BE
:043AF00000000000D2
:04000005080000C12E
:00000001FF
