:020000040800F2
:10000000E8050020D5000008DD000008DF0000083A
:1000100000000000000000000000000000000000E0
:10002000000000000000000000000000E1000008E7
:100030000000000000000000E3000008E5000008E8
:10004000E7000008E7000008E7000008E7000008F4
:10005000E7000008E7000008E7000008B50900080D
:10006000E7000008E7000008E700000800000000C3
:10007000E70000080000000000000000E7000008A2
:10008000E7000008E70000081D150008E700000869
:10009000E7000008E700000800000000E700000893
:1000A000E7000008551A000871180008291900080F
:1000B000E7000008E7000008E7000008E700000884
:1000C0000348854600F032FA0048004771250008D1
:1000D000E80500200448804704480047FEE7FEE7A3
:1000E000FEE7FEE7FEE7FEE7FD140008C10000089A
:1000F00030B50B46014600202022012409E00D46C0
:10010000D5409D4205D31D469540491B2546954047
:1001100040191546521E002DF1DC30BD70B500248B
:100120002546002801DA01244042002901DA012590
:100130004942FFF7DDFFAC4200D04042002C00D026
:10014000494270BDF0B51FB40646002082B0054696
:100150004024019100901BE0019922460F46304651
:1001600000F08BF9049A059B801A994110D3104630
:100170001946224600F071F9361A8F41019722463E
:1001800001200021009F00F068F938184D410090CF
:100190002046641E0028DFDC019B00982946324679
:1001A00007B0F0BDD2B201E00270401C491EFBD284
:1001B00070470022F6E710B513460A460446194672
:1001C000FFF7F0FF204610BD30B505462A460B4626
:1001D00010781C78521C5B1C002801D0A042F7D07C
:1001E000002C03D0002802D06D1CEFE7284630BD5C
:1001F0000FB400B58DB009900B9010A900200091AC
:10020000C0430A9000200C900648069006480790CC
:100210006A4609A80F9900F057F90DB008BC04B060
:1002200018470000E904000809050008FFB5002789
:10023000FF4383B000205C6801909E681D46A96959
:100240007F1C049888470090296A88470028F6D1C7
:100250000098401C0CD0032040028443002E19DD7E
:10026000600614D500982B2809D02D280FD103E063
:100270000020C04307B0F0BD012080020443A969FB
:100280007F1C04988847761E0090002E02DD00989F
:10029000302803D00598002825D035E00120400201
:1002A0000443A969761E7F1C049888470090002E9D
:1002B00003DD782805D0582803D00598002810D0F1
:1002C00022E00598002801D010281DD1012040020D
:1002D0008443A969761E7F1C0498884700901020EB
:1002E00002E0082000E00A2005900DE0012149020B
:1002F0000C43059A0199761E514308180190A9698B
:100300007F1C049888470090002E05DD0599009811
:1003100000F0C4F80028E9DAE96904988847A005E4
:1003200002D40120C043A5E7E00722D1600611D521
:100330006005019800D5404229680A1D2A600968B5
:10034000220501D5087014E0220701D5088010E0CD
:1003500008600EE02868011D29600068210502D5AB
:100360000199017005E02107019901D5018000E0A4
:10037000016038467EE7FFB5002083B000905068EA
:1003800001909169144600269768049888470546AD
:100390000C990698084305D009E0A169761C0498D9
:1003A00088470546216A284688470028F5D1681CF9
:1003B00003D00198C00704D017E00020C04307B065
:1003C000F0BD2068011D2160006800900DE00198DB
:1003D000C00704D1009805700098401C0090A169E6
:1003E000761C7F1E049888470546002F1CDD681C7C
:1003F0001AD0069800280FD0E817C00E40194111F6
:100400008A0006994009511840012A1A09680120FA
:1004100090400142DBD107E00C980028D7D1216A37
:10042000284688470028D2D0E16904988847019877
:100430000C99C007C00F084302D100980021017039
:10044000A068B84204DD0C98002804D0002F02D028
:100450000120C043B3E73046B1E710B5202A04DBE2
:100460000146203A9140002010BD914020239C1A63
:100470000346E3401943904010BD10B5202A04DB29
:100480000846203AD040002110BD0B46D340D04052
:100490002024A21A91400843194610BD3A2800D2E0
:1004A0003038202302469A43412A01D31046373878
:1004B000884201D30020C0437047000002681378CF
:1004C000511801601846704710B5D1600449516158
:1004D0000449116200211161114600F041F810BD7C
:1004E000BD040008510500084268002A08D00168D0
:1004F0000B78491C002B03D0521E06C018467047CB
:100500000121C160881E70474268002A0BD0C36871
:100510000168002B07D183688B4204D0491E521C0E
:1005200006C0002070470020C0437047064C0125DC
:10053000064E05E0E36807CC2B430C3C984710348B
:10054000B442F7D3FFF7C0FD6C3900088C390008BE
:1005500010B50F21C0B2490200F09CF910BD000097
:10056000F3B58DB000200A9001200B9000260846BC
:100570000C300C46099062690121099890470500EA
:100580002ED0252D2DD0216A8847002818D06269E9
:10059000012109989047216A88470028F7D1411E18
:1005A00062690998904700E0761CA1690D98884718
:1005B000216A88470028F7D1E1690D988847DAE772
:1005C000A1690D9888470746A84201D1761CD2E759
:1005D000E1690D9888477F1C02D10A98002877D0DE
:1005E00046E1002762693D463946099890472A2826
:1005F0000CD16269012109989047012506E00A2182
:100600004F433F18303FEBD410200543626901216E
:1006100009989047014630390A2903D29A498F42F6
:10062000DEDCECE7E90600D4984F6C280AD04C28B1
:1006300010D0682824D06A282ED074280CD07A28AC
:100640000AD00DE062690121099890476C2823D0F7
:1006500004211CE02020054362690121099890478C
:10066000A760656065284FD026DC582839D01ADC91
:10067000452849D012DC252834D04128B0D143E0A8
:100680006269012109989047682802D008210D432A
:10069000E6E70120C002DEE70220DCE7462833D08F
:1006A00047282CD130E05B287BD061282CD06328F0
:1006B00077D0642823D15EE06F284CD009DC66280F
:1006C00022D0672820D0692826D06E2817D12EE0A6
:1006D000CAE070284AD073286CD075284BD078288F
:1006E0000DD150E0A1690D9888470546252800D115
:1006F0006CE7E1690D9888476D1C00D16DE7B7E0A4
:100700000A2248E00A224FE0012023466A46C043FD
:100710000D99C046C046A0E02846402108436060CD
:10072000A807234601D5002235E000223CE02068DE
:10073000011D21600068290501D506701BE7290706
:1007400001D5068017E7A90703D5F11706604160B8
:1007500011E706600FE72846402108436060A807BC
:10076000234601D5082216E008221DE04849284604
:100770000840606016E02846402108436060A807F2
:100780002346BFD5BCE72846402108436060A80740
:1007900008D5234610220120C0430D99C046C0460B
:1007A0005BE007E0234610220120C0430D99FFF7CC
:1007B0003DFD52E000210C910B460091632802D0D0
:1007C0005B2807D043E0E80601D40120A0600120A7
:1007D00000903CE062690121099890475E2805D1AC
:1007E00001200C900146626909989047216900290F
:1007F00006D10B4601AA8F00491CD3510829FADB08
:10080000002835D0216900290ED1C117C90E091859
:100810004A11930001AA9A1849094901411A012075
:100820001368884003431360626901210998904767
:100830005D28E5D10C98002808D0002001AB81008C
:100840005A58401CD2435A500828F8DB01AB01200B
:100850002246C0430D99FFF78EFD00280ADA401C9E
:1008600006D10B98002803D00020C0430FB0F0BD84
:100870000A98FBE7E90702D10A99491C0A91361840
:1008800000200B9077E60000CCCCCC0CFFFFFF7F64
:10089000F1F7FFFF7F2801D9002207E0054B42084E
:1008A0009A5CC00700D112091207120F0120904074
:1008B000084070472C39000870B506460C461546AE
:1008C000A620084908701020487003208870084648
:1008D000C67004714571FF2088710721014801F03D
:1008E00005F870BDD601002010B5A6200649087095
:1008F0002020487000208870FF20C8700421024822
:1009000000F0F4FF10BD0000D601002010B5044631
:10091000A6200749087011204870012088700846F9
:10092000C470FF2008710521014800F0DFFF10BDF1
:10093000D601002010B5044603E07D20C00000F081
:1009400073FA2046611E8CB20028F6D110BD00005B
:1009500031B5002464210098FFF7CAFB04460CE07F
:1009600000BF11481149086000BF0020104908600D
:1009700000BF0F4800686428FBD32046641E00288F
:10098000EED100BF08480949086000BF6421009803
:10099000FFF7AEFB0C4600200549086000BF044885
:1009A0000068A042FBD338BDAAAA00000030004076
:1009B0004C00002070B52E4802F04EF8002805D0FB
:1009C0002B4802F03FF801202A4908602848401CC3
:1009D00002F042F800280CD02548401C02F032F802
:1009E00025480078002804D024480088401C23496A
:1009F00008801F48401E02F02FF800280CD01C4829
:100A0000401E02F01FF81C480078002804D01C4843
:100A10000088401C1A49088019480088174909882D
:100A2000884202DA1648008801E01448008805462A
:100A30001348008811490988884202DD104800885F
:100A400001E00E4800880446122C0FDBA81C80B27F
:100A5000A04206DB0B48007840084000401C0949D2
:100A600008700020064908800449088070BD000015
:100A70000D0000065C0000206400002062000020E1
:100A8000600000206800002008B5002100910222CB
:100A90006946002000F0D2FB6846008808BD0000CF
:100AA00070B5FF2101311C4802F0F0F8012000F080
:100AB00037FC062000F0B8F9FF210131164802F09A
:100AC00010F901214902144802F00BF9062000F048
:100AD000ABF9002400250CE0012149020E4802F088
:100AE00092F8012148400446002C00D003E0681C25
:100AF00085B2FA2DF0DB00BF062000F095F9FF214A
:100B00000131054802F0C2F8062000F08DF90020FE
:100B100000F006FC204670BD0004005010B501F046
:100B20007BFC10BDFFB581B0044615461E46FE2075
:100B3000044001222046029900F094F80746002F55
:100B400007D03146284600F05BF8002801D001208C
:100B500000E00020074600F0FDF8384605B0F0BD83
:100B6000FFB581B0074614461D460022384602995B
:100B700000F078F80646002E07D02946204600F0FF
:100B800041F9002801D0012000E00020064600F0D5
:100B9000E1F8304605B0F0BD70B50825002401200D
:100BA00000F0BEFBA901154802F09BF8062000F0FA
:100BB0003BF91AE0FF210131104802F092F860067B
:100BC000040E012149020D4802F01DF8002801D051
:100BD00001200443062000F027F9FF2101310748D6
:100BE00002F054F8122000F01FF92846691ECDB219
:100BF0000028DFD100F094FB204670BD00040050B7
:100C000070B504460D460AE0FFF7C6FF2070641C6D
:100C1000002D02D100F05AF801E000F007F8284654
:100C2000691ECDB20028EFD1012070BD10B50121A1
:100C300049020B4802F02AF8062000F0F5F8FF21DF
:100C40000131074802F04DF8122000F0EDF8FF21C5
:100C50000131034802F01AF8062000F0E5F810BD53
:100C60000004005070B504460D46164600F04AF8E0
:100C7000204600F08BF800280DD10120FFF75AFE26
:100C800000F040F8204600F081F8002803D100F081
:100C900061F8002070BDE8B200F078F8002803D1B8
:100CA00000F058F80020F5E7012E0CD100F02AF8EA
:100CB00001212143084600F069F8002803D100F023
:100CC00049F80020E6E70120E4E7000010B5012123
:100CD00049020B4802F005F8062000F0A5F8FF21B4
:100CE0000131074801F0FDFF122000F09DF8FF21BF
:100CF0000131034801F0CAFF062000F095F810BD4D
:100D00000004005010B5002000F00AFB0121490248
:100D10000F4801F0E6FF062000F086F8FF210131C0
:100D20000B4801F0DEFF062000F07EF801214902A9
:100D3000074801F0ABFF062000F076F8FF210131F3
:100D4000034801F0A3FF062000F06EF810BD00007C
:100D50000004005010B5002000F0E2FA0121490221
:100D6000094801F093FF062000F05EF8FF210131F1
:100D7000054801F0B6FF062000F056F801214902AF
:100D8000014801F0AEFF10BD0004005070B50446EC
:100D90000825002000F0C4FA6901194801F076FF27
:100DA000062000F041F823E080202040002805D0F4
:100DB00001214902124801F094FF04E00121490297
:100DC0000F4801F063FF6006040E062000F02CF8C7
:100DD000FF2101310A4801F084FF122000F024F8BD
:100DE000FF210131064801F051FF062000F01CF8F8
:100DF0002846691ECDB20028D6D1FFF751FE70BD3E
:100E00000004005070B504460D4606E02078641CCE
:100E1000FFF7BCFF002800D170BD2846691ECDB287
:100E20000028F3D10120F7E700E000BF0146421E91
:100E300090B20029F9D1704710B506210648FFF796
:100E4000B8F9552004490870AA20487006220020ED
:100E500000F001FE10BD00007A00002010B5FFF781
:100E600013FE04461348844219D11348002101801F
:100E7000418004220146022000F0E0F90E4840784B
:100E800000020D49097840180C4948800A48C0788A
:100E900000020949897840180849888005E0FFF771
:100EA000CBFF06210548FFF784F904484088044930
:100EB000088010BD55AA00007A00002074000020B0
:100EC0008000002010B53D488088052800DA10BD5C
:100ED00000203A49888001F0D6FA002822D038480C
:100EE0000078401C3649087008460078022832DB3A
:100EF0000220087033480078C007C00F00282AD1AC
:100F00003048008840084000401C2E4908800020DE
:100F10002D49087001F018FC2CA000F00DFE00F027
:100F2000A3F818E026480078002805DD244800785A
:100F3000401E234908700EE022480078C007C00F09
:100F4000002808D01F480088400840001D4908803C
:100F500021A000F0F1FD1B480078C007C00F002859
:100F600029D101F087FA002813D017480078C92842
:100F700004DA15480078401C1349087012480078BC
:100F8000C82818D1012001F0DFFB022002F002FC8A
:100F900011E00D48007800280DDD0B48007832285C
:100FA00003DD32200849087005E007480078401E3C
:100FB0000549087000BF00BF89E700005400002009
:100FC0006B000020660000206A0000204463204976
:100FD0006E2073746F700A004463206F66660A00A7
:100FE000F3B581B00D46002418E001980619307859
:100FF000B62800D010E0E01CA84200DB10E0B0787A
:10100000071DE019A84200DD0AE0304601F0FAFBB6
:10101000E019401E84B200BF601C84B2AC42E4DB25
:1010200000BFFEBDF3B581B00D46002418E0019865
:1010300006193078B52800D010E0E01CA84200DB8B
:1010400010E0B078071DE019A84200DD0AE0304644
:1010500001F09CFCE019401E84B200BF601C84B209
:10106000AC42E4DB00BFFEBD10B52E480088022173
:1010700088432C490880084600880121890288435A
:1010800028490880084600880005C00F002807D0BE
:10109000084600880121C90288432249088010E0DF
:1010A00020480088C004C00F002807D01D480088D1
:1010B0000121090388431B49088002E0002001F058
:1010C000CCFA00201849087016480088202188436F
:1010D0001449088008460088402188431149088047
:1010E000002001F053FB00201049088010490880BF
:1010F000084601880D48008801F072FB002001F0CD
:10110000BFFA002000F02CF90A20FFF721FC002094
:1011100000F026F90020FFF7F9FB06A000F00CFD17
:1011200010BD000066000020690000207000002053
:1011300072000020706F776572206F66660D0A007E
:1011400010B5354800788007C00F002800D010BDCA
:1011500031480078C007C00F002803D101F093F98F
:10116000002800D0F3E72C48008802218843801C27
:1011700029490880084600880121890288432649B8
:101180000880084600880121C90288432249088056
:10119000084600880121090388431F490880084642
:1011A0000088042188431C49088000201B490870DE
:1011B0001B49087001F0C8FA012001F04EFA012025
:1011C00001F0E4FA02F06EFBE1208000154908808E
:1011D000154908800146084601F002FBDC2001F0B9
:1011E0004FFA022000F0BCF80A20FFF7B1FB022002
:1011F00000F0B6F80220FFF789FB00200B49488079
:1012000005480088202188430349088008A000F091
:1012100093FC00BF9BE70000660000206A000020EE
:10122000690000207000002072000020540000209F
:10123000706F776572206F6E0D0A0000F7B584B08D
:101240000446059801902046E117C90E0918491176
:101250004901611A8EB206998819C117C90E091879
:10126000C9020D0C002D04DD069880196901401A91
:1012700000E0069880B20390002D08D10398C3B215
:10128000E1B2A020019AFFF74DFC07B0F0BD20208D
:10129000801BC3B2E1B2A020019AFFF743FC029089
:1012A0000298002800D1F0E70A20FFF751FB204602
:1012B0002030801B84B201982030801B01900027D1
:1012C00015E0790101980A1878010019C0B22023AD
:1012D00001460090A020FFF725FC0290029800280C
:1012E00000D1D2E70A20FFF733FB781C87B2681ED3
:1012F000B842E6DC039800280FDD0398C3B2681EED
:10130000410101980A18681E40010019C0B2014647
:101310000090A020FFF706FCB7E70120B5E700002A
:1013200010B586B00446142101A8FEF742FF012043
:1013300040020190002C01D1012000E00020029029
:10134000002C01D0012000E0002003900120049037
:1013500001A9024801F060FC06B010BD0004005075
:1013600010B50446A5200749087001204870887010
:101370000846C470FF2008710521024800F04CFBAC
:1013800010BD0000D601002010B50446A520074975
:10139000087005204870012088700846C470FF203E
:1013A00008710521014800F037FB10BDD60100206F
:1013B00010B50446A5200749087004204870012094
:1013C00088700846C470FF2008710521014800F0AC
:1013D00023FB10BDD601002010B50446A520074907
:1013E000087003204870012088700846C470FF20F0
:1013F00008710521014800F00FFB10BDD601002047
:10140000FEB53948806838210840102812D004DC25
:10141000002848D0082845D104E0182807D0202803
:1014200040D101E0314D4DE00125ED034AE07D253D
:101430002D0247E02C48C068C607F60F002E01D0E9
:101440002A4C04E0002E01D1294C00E0002426485B
:10145000C068F8210840C7082348C068072109026E
:101460000840000A0290002F00D12027029800288F
:1014700001D1082002902146794308460299FEF7DF
:1014800037FE04461848C068032149040840400C50
:10149000019001220198824011462046FEF728FE65
:1014A00005460FE000BF104800680321C90208404C
:1014B000C10A0120884000900D480099FEF718FEEF
:1014C000054600BF00BF08488068072109020840A0
:1014D000000A800007490C5821462846FEF708FEFE
:1014E00005490860FEBD00000010024000127A00AD
:1014F0000024F400EC38000884000020034804496C
:101500008860044804490860704700000000000833
:1015100000ED00E00024F4008400002010B501205C
:101520001149C9680140814200D100E00021002931
:1015300019D001200C4909690140814200D100E025
:10154000002100290FD00120C143074A116100BFCB
:1015500000F06EF801208003044949694140034AC4
:10156000516100BF00BF10BD0010004000040050DA
:101570002B490978C907C90F002905D028490978DE
:1015800049084900264A1170254909788907C90F79
:10159000002912D02249097802229143204A117071
:1015A000002008E041001F4A515A491C42001D4BCF
:1015B0009952411CC8B20528F4DB1949097849073A
:1015C000C90F002912D01649097804229143144A00
:1015D0001170002008E04100134A515A491C420092
:1015E000114B9952411CC8B20328F4DB0C4909780D
:1015F0000907C90F002912D0094909780822914327
:10160000074A1170002008E04100084A515A491C5D
:101610004200064B9952411CC8B20128F4DB7047C6
:10162000520000208C010020540000205A000020AD
:1016300010B52C480088401C2A4908802A480078A8
:1016400040084000401C2849087028480068401C99
:101650002649086023490888C117490F0918C9108D
:10166000C900411A3CD12048007802218843801CDF
:101670001D4908701E480068401C1D4908601D482F
:101680000068401C1B490860502116480088FEF77E
:1016900045FD002924D11448007804218843001D09
:1016A0001149087000F0B6F87D2189010D480088C5
:1016B000FEF734FD002913D10B4800780821884338
:1016C0000830094908700C480068401C0A49086045
:1016D000044800880949884202DB0020014908804B
:1016E00010BD0000500000205200002040000020EB
:1016F000440000204C00002048000020409C0000D6
:1017000010B540480078C007C00F002803D100F092
:10171000BAFE002800D010BD3A4800788007C00FFC
:10172000002832D13848008864282DDB0020364953
:10173000088036480078401C3449087031480088D9
:101740004005C00F002806D008460078032802DBB9
:10175000FFF78AFC18E02B4800880005C00F00281E
:1017600006D02A480078052802DBFFF77DFC0BE055
:1017700024480088C004C00F002805D02348007802
:10178000032801DBFFF770FCC5E71E4800788007DF
:10179000C00F002825D01B480078C006C00F0028C5
:1017A0001FD01B480078C007C00F002828D0184859
:1017B000007840084000164908700020124948800F
:1017C000104800784006C00F002819D10D48008845
:1017D0002021884320300B4908800120FFF7D4FDE9
:1017E0000EE0084800788006C00F002808D00548A1
:1017F000008820218843034908800020FFF7C4FDAA
:1018000000BF88E766000020540000206900002027
:101810006800002010B513480088C005C00F0028DC
:101820001ED0104800888005C00F002818D10E482F
:101830000088401C0C490880084600880B4909882C
:1018400088420DDB07480088FF21013188430549A4
:10185000088002F027F8E1218900084600F0C0FF67
:1018600010BD0000660000206E0000206C0000200B
:1018700010B52021194801F0C8FC002805D101212C
:10188000164801F0CBFC002809D00821134801F0CC
:10189000CEFC002803D00821104801F0ABFC202129
:1018A0000E4801F0B2FC002817D020210B4801F0AF
:1018B000BEFC002811D00A48006840280AD200BFA8
:1018C0000649496ACAB206490868411C044B1960B6
:1018D00004490A5400200449888010BD0044004097
:1018E00018000020CC0000208C01002070B50546B7
:1018F0000E4600BF80210B4801F0A2FC0028F9D061
:1019000000240CE0295D074801F0DDFC00BF402108
:10191000044801F095FC0028F9D0601CC4B2B44220
:10192000F0DB70BD0044004010B52021334801F0C9
:101930006CFC002805D10121304801F06FFC002823
:1019400009D008212D4801F072FC002803D008219D
:101950002A4801F04FFC2021284801F056FC0028BD
:1019600017D02021254801F062FC002811D024481E
:10197000006840280AD200BF2049496ACAB22049FB
:101980000868411C1E4B19601E490A5400201E495C
:10199000C88020211D4801F038FC002805D1012114
:1019A0001A4801F03BFC002809D00821174801F033
:1019B0003EFC002803D00821144801F01BFC202124
:1019C000124801F022FC002817D020210F4801F016
:1019D0002EFC002811D00E48006840280AD200BF13
:1019E0000A49496ACAB20A490868411C084B196089
:1019F00008490A5400200449088110BD00480040ED
:101A00001C0000200C0100208C010020004C004034
:101A1000200000204C01002070B505460E4600BF96
:101A200080210B4801F00CFC0028F9D000240CE0C8
:101A3000295D074801F047FC00BF4021044801F040
:101A4000FFFB0028F9D0601CC4B2B442F0DB70BDCB
:101A5000004C00407047F7B584B0044605980190EB
:101A60002046E117C90E091849114901611A8FB2C0
:101A70000699C819C117C90E0918C9020D0C002D05
:101A800004DD0698C0196901401A00E0069880B28A
:101A90000390002D08D10398C3B2E1B2A020019AAF
:101AA000FFF75EF807B0F0BD2020C01BC3B2E1B263
:101AB000A020019AFFF754F802900298002800D164
:101AC000F0E720462030C01B84B201982030C01BB4
:101AD00001900A20FEF73CFF002615E071010198F5
:101AE0000A1870010019C0B2202301460090A020FE
:101AF000FFF736F802900298002800D1D2E70A20BA
:101B0000FEF726FF701C86B2681EB042E6DC039822
:101B100000280FDD0398C3B2681E410101980A181E
:101B2000681E40010019C0B201460090A020FFF7D6
:101B300017F8B7E70120B5E70FB410B503A9044BB8
:101B4000044A029800F006F910BC08BC04B018471B
:101B5000F5230008880000200FB410B504A9074B36
:101B600002AA039800F0F6F8044602A9002000F04B
:101B70002BFB204610BC08BC04B01847C921000844
:101B800030B47446641E2578641CAB4204D3635D94
:101B90005B00E31830BC18471D46F8E7002805DB5A
:101BA000C206D20E01219140014A11607047000027
:101BB00000E100E0002805DBC206D20E01219140C1
:101BC000014A11607047000000E100E010B50028F4
:101BD00019DB1A4A03231B02D21883089B00D25830
:101BE0008307DC0EFF23A3409A438B071B0E840759
:101BF000E40EA3401A43114B032424021B1984084A
:101C0000A4001A5118E00E4A03071B0F083B9B085B
:101C10009B00D2588307DC0EFF23A3409A438B0717
:101C20001B0E8407E40EA3401A43054B0407240F40
:101C3000083CA408A4001A5110BD000000E100E017
:101C40001CED00E010B5002819DB1A4A03231B0223
:101C5000D21883089B00D2588307DC0EFF23A340D1
:101C60009A438B071B0E8407E40EA3401A43114BC3
:101C7000032424021B198408A4001A5118E00E4AF8
:101C800003071B0F083B9B089B00D2588307DC0E01
:101C9000FF23A3409A438B071B0E8407E40EA34047
:101CA0001A43054B0407240F083CA408A4001A514A
:101CB00010BD000000E100E01CED00E010B50028C0
:101CC00019DB1A4A03231B02D21883089B00D2583F
:101CD0008307DC0EFF23A3409A438B071B0E840768
:101CE000E40EA3401A43114B032424021B19840859
:101CF000A4001A5118E00E4A03071B0F083B9B086B
:101D00009B00D2588307DC0EFF23A3409A438B0726
:101D10001B0E8407E40EA3401A43054B0407240F4F
:101D2000083CA408A4001A5110BD000000E100E026
:101D30001CED00E002E008C8121F08C1002AFAD119
:101D400070477047002001E001C1121F002AFBD13B
:101D500070470000FFB591B00F460546002606E02B
:101D600025280AD0149A139990476D1C761C287860
:101D70000028F5D1304615B0F0BD002400940121B3
:101D8000F34A029400E004436D1C2B780846203B84
:101D900098401042F7D128782A280ED002212878BE
:101DA0000246303A092A15D8009A0A235A43303A93
:101DB00080180C436D1C0090F1E701CF00900028C3
:101DC00005DA0120400304430098404200900220BD
:101DD00004436D1C28782E2815D10420044368780C
:101DE0006D1C2A280AD101CF6D1C02900BE00299CC
:101DF0000A225143303940186D1C02902878014660
:101E000030390929F3D928786C2810D006DC4C2801
:101E10001AD068280ED06A2817D104E0742813D08D
:101E20007A2812D110E00120400504430CE0012182
:101E3000090501E0032109050C436978814203D1BA
:101E40000120000524186D1C6D1C287803906E2855
:101E50001ED00CDC632831D004DC00288AD058283E
:101E600011D1B2E064287BD069280CD178E07328C6
:101E70002DD004DC6F2870D0702804D1A7E075281D
:101E80006CD078286BD0149A13999047761C62E036
:101E90006002400F022807D003280AD004283868BF
:101EA0000AD006603F1D56E03868F11706604160B1
:101EB000F8E738680680F5E70670F3E73878694692
:101EC00008740020487404A80390012003E03868D7
:101ED00003900020C0433F1D61070FD5002101E0A2
:101EE0000199491C029A0191914213DA8142F7DB70
:101EF000019A0399895C0029F2D10BE0002101E0ED
:101F00000199491C01918142FADB019A0399895C8C
:101F10000029F5D101990098139A401A00902146A2
:101F2000149B00F03BF901998019461807E00398CB
:101F300003990078491C0391149A139990470198CA
:101F4000401E0190401CF2D12146149B139A009828
:101F500000F014F986196D1C09E741E033E034E024
:101F60000A200021049005916002410F022905D04A
:101F700001CFC2179446032905D007E0FF1DFF08D3
:101F8000FF0003CF06E000B2C2179446042902D135
:101F900040B2C1178C4600226146944506DA0A46D3
:101FA0000021404291418C462D2102E0210504D5BB
:101FB0002B216A461176012103E0E10701D020219F
:101FC000F7E7019154E00A200BE0102009E010200F
:101FD000049000210420044308200591029003E0AE
:101FE00008200021059104906002410F022905D0CC
:101FF00001CF00229446032906D006E0FF1DFF080A
:10200000FF0003CF8C4603E080B2042900D1C0B2A8
:102010000021019121072BD50399702906D0049A3C
:102020001021059B4A401A4305D00EE040216A4624
:102030001176012108E06146014306D030216A464D
:1020400011760399517602210191049A0821059B8A
:102050004A401A430CD16146014301D1610707D5BB
:1020600030216A461176012101910299491E02919F
:102070000399582904D037A103910FA90F910DE0BE
:1020800039A1F9E76146059B049AFEF75BF8039BCB
:102090008C469B5C0F9A521E0F921370614601434F
:1020A000F0D10F9807A9081A20300390600704D5D3
:1020B000012000048443029801E00120029003996A
:1020C000884201DD401A00E000204118029001988A
:1020D00009180098401A0090E00306D42146149B8A
:1020E000139A009800F05AF886190020049008E02E
:1020F00006A9085C149A139990470498401C761C12
:10210000049001998842F3DBE0030CD52146149B2F
:10211000139A009800F042F8861904E0149A3020CF
:1021200013999047761C0299481E02900029F5DC0D
:1021300008E00F980F990078491C0F91149A139991
:102140009047761C0399481E03900029F1DCFBE6BA
:10215000092801003031323334353637383961627D
:102160006364656600000000303132333435363741
:10217000383941424344454600000000F8B5044662
:1021800000251E461746880404D405E03946202061
:10219000B0476D1C641EF9D52846F8BDFFB504464E
:1021A000002581B01E46C80301D5302700E0202756
:1021B000880404D505E038460399B0476D1C641EB9
:1021C000F9D5284605B0F0BD0A68531C0B601070A5
:1021D0007047000010B50021054800F0B9FE03214A
:1021E000034800F0B5FE024800F0BAFE10BD000042
:1021F0000008004010B50021034800F0A9FE024885
:1022000000F0AEFE10BD0000000C004070B588B0BC
:1022100029A101A8FFF7A0FC06A807AB04AA29A1E1
:10222000009001A8FDF7E4FF04A92948FDF7CCFFC1
:102230002749461A03213046FDF770FF451C7D21D2
:1022400009010698401A069006240A210698FDF70F
:1022500065FF30301F4908550A210698FDF75EFFDB
:1022600030311C4A601C11540A212846FDF756FFE4
:102270003030C1B2174AE01C11540A212846FDF73C
:102280004DFF3031134A201D11540A210798FDF7E4
:1022900045FF3030C1B20F4AA01D11540A210798E2
:1022A000FDF73CFF30310B4AE01D115411460AA0E6
:1022B000FFF742FC08B070BD4D6179203138203203
:1022C000303236002573202564202564000000008C
:1022D000C438000800000020536F66745F566572B2
:1022E000733A2025730D0A0000B585B014216846A5
:1022F000FDF75FFF022000F00BFE042000F008FE57
:10230000082000F005FE012000F002FE012040033D
:1023100000900020019002906946114800F07CFC7A
:102320000120000300900120029069460D4800F052
:1023300073FC01208003009069460A4800F06CFCA1
:102340000120C00300906946064800F065FC0120AA
:1023500000906946044800F05FFC05B000BD000035
:102360000008005000040050000C005010B5FFF7AA
:10237000BBFF00F001F810BD1FB5002000900190D8
:10238000029003901A4800900120019002200290D0
:102390000390684600F070FB1548401E0090012035
:1023A0000390684600F068FB1148401C00906846A6
:1023B00000F062FB0E48801C0090684600F05CFB59
:1023C00003210720FFF77AFC0720FFF7F3FB032028
:1023D0004006009003200390684600F04DFB032167
:1023E0000520FFF76BFC0520FFF7E4FB1FBD000095
:1023F0000D00000670B504460D4600BF0548846216
:1024000000BF00BF4021034800F011FF0028F9D0B1
:10241000204670BD0048004000B585B014216846D4
:10242000FDF7C7FE02201149C96A01430F4AD16274
:1024300000BF00BF00BF00BF0320000200900120CA
:10244000019000200290012003906946084800F0A6
:10245000E3FBFF210131064800F043FC0121490262
:10246000034800F03EFC05B000BD00000010024033
:102470000004005010B510210520000700F0BAFB41
:102480000121484010BD10B50121090305200007B6
:1024900000F0B0FB10BD000000B585B01421684607
:1024A000FDF787FE01201149C96A01430F4AD16235
:1024B00000BF00BF00BF00BF01200003009000204C
:1024C00001900220029069460520000700F0A4FB5D
:1024D0001020009000200190012002906946052004
:1024E000000700F099FB05B000BD0000001002409D
:1024F00000BF0E484068012108430C49486000BFF6
:1025000000BF00BF09484068022108404008002879
:10251000F7D000BF06480749086000BF04204860A4
:1025200000BF00BF0448086000BF70474010024071
:102530005555000000300040CCCC000000B585B0FF
:1025400014216846FDF735FE022000F0E1FC012071
:1025500080030090012001900290002003906946C2
:10256000024800F059FB05B000BD00000004005017
:1025700000F0C2FE01F02AF801F066F801F09AF8C6
:1025800001F0D4F818A11CA0FFF7D6FA21A0FFF79C
:10259000D3FAFFF73BFEFFF7D1FF00F043FAFFF756
:1025A000E5FE00F07DFF00F09DFFFFF713FE00F059
:1025B000CBFF00F0E1FFFFF71DFEFFF799FF00F0F2
:1025C00085FEFEF7ABFAFEF749FCFFF765FF00F06A
:1025D00061F808E0FEF7CCFF00BF17481749086014
:1025E00000BF01F0C5F8F5E748453431355F4D428D
:1025F0005F56342E303100002A2A2A2A2A2A2A2A13
:102600002A25732A2A2A2A2A2A2A2A2A2A200D0A2D
:10261000000000000D0A6275696C64284D61792024
:1026200031382032303236202D2030333A32323AAF
:10263000313129200D0A0000AAAA00000030004014
:1026400030B50346002405E00D781D70491C5B1C65
:10265000651CACB29442F7DB30BD10B50446002CCB
:1026600006D0012189020520000700F038FB05E0B3
:10267000012189020520000700F006FB10BD0000C3
:1026800010B5044622460321014800F04FFD10BD5D
:102690000008004000B585B014216846FDF789FDAB
:1026A000012000F041FC022000F03EFC10200090D0
:1026B00001200190002002900120039069462148EA
:1026C00000F0AAFA10211F4800F0DEFA0120800273
:1026D000009001200190002002900390694605209F
:1026E000000700F099FA012189020520000700F097
:1026F000CBFA2020009001200190002002900120C0
:10270000039069460F4800F087FA20210D4800F039
:10271000BBFA0520C0020090012001900020029029
:10272000012003906946074800F076FA0121C902AA
:10273000044800F0D4FA01214903024800F0A4FA49
:1027400005B000BD0004005010B50446002C04D0B4
:102750001021044800F0C3FA03E01021014800F002
:1027600093FA10BD0004005010B50446002C05D1AA
:102770000121C902044800F0B2FA04E00121C902B3
:10278000014800F081FA10BD0004005010B5044665
:10279000002C04D02021044800F0A1FA03E02021FD
:1027A000014800F071FA10BD0004005010B5044655
:1027B000002C05D101214903044800F065FA04E02A
:1027C00001214903014800F08AFA10BD00040050BD
:1027D00010B50020FFF7C8FF0020FFF7E7FF10BD8E
:1027E00070B504460D4622460021044800F09EFCC8
:1027F0002A460021024800F099FC70BD0008004004
:10280000000C004070B505466E78EC78FFF73BFE93
:10281000002805D0224601210846FEF74DF870BD7C
:10282000012E09D0022E16D0202E7DD02246314610
:102830000120FEF741F89AE0022C05DB4DA0FFF7DE
:102840007BF9FEF77DFC05E04CA0FFF775F9012050
:1028500000F0A0FF8BE04C4800788007C00F0028F4
:1028600005D1224631460120FEF726F87FE02300FD
:10287000FFF786F9050A1D314661040022463146FC
:102880000120FEF719F86DE03F48008810218843C9
:102890003D49088008460088402188433A4908801D
:1028A0000020FEF799FD0320FEF730F85AE0364885
:1028B000008810218843103033490880084600887A
:1028C00040218843304908800120FEF785FD04201F
:1028D000FEF71CF846E02C48008810218843103091
:1028E000294908800846008840218843403026490D
:1028F00008800220FEF748FD0520FEF707F831E0CA
:10290000214800884021884340301F4908800846FC
:1029100000881021884310301B4908800846008831
:1029200020218843203000E01EE017490880022063
:10293000FEF72AFD16E0144800884021884312491A
:102940000880084600881021884310300E4908800E
:1029500008460088202188430B4908800020FEF7A4
:1029600013FD00BF00BF02E0FDF7BEFF00BF00BFC8
:1029700000BF54E762743A7077720A0062743A706A
:102980007772206F66660A006600002070B5044604
:102990006678E578012E04D0022E03D0032E17D0DE
:1029A00025E024E0032D12D1124800784007C00F23
:1029B00000280CD10F48008804218843001D0D49D0
:1029C00008800DA0FFF7B8F8032000F0E1FE0EE04C
:1029D000002D05D00CA0FFF7AFF8FEF7B1FB05E026
:1029E0000CA0FFF7A9F8012000F0D4FE00BF00BF43
:1029F00070BD000066000020776174657220667506
:102A00006C6C200A00000000756172743A70777275
:102A10000A000000756172743A707772206F666602
:102A20000A000000064800690421084304490861BF
:102A30000846006901210843014908617047000008
:102A400000E000E0C206D20E01219140014A9160EF
:102A50007047000000180240014606488068CB0617
:102A6000DB0E01229A401040002801D0012070475F
:102A70000020FCE700180240F0B50324640601685A
:102A80002140002969D0017A8A07920F0168584CC9
:102A90006468CE06F60E0125B540AC43544D6C601B
:102AA00000BF01682C462468CE06F60E0125B5400D
:102AB000AC434F4D2C6000BFD107C90F002910D087
:102AC00001682C462468CE06F60E0125B540AC43BD
:102AD000CE06F60E0125B5402C43454D2C6000BFB7
:102AE00000BF02211140022910D10168404C6468E6
:102AF000CE06F60E0125B540AC43CE06F60E0125F6
:102B0000B5402C433A4D6C6000BF00BF03246406FF
:102B100001682140A14220D1C468016803256D06E7
:102B20000D4003267606B54215D1C906C90E304DB3
:102B30005035CE08B600AD594E07F70E0726BE40F9
:102B4000B5434E07F60E2746B7403D43284E503654
:102B5000CF08BF00F55100BF00BF01798B079B0F65
:102B60000168234C4034246BCE06F60E0125B54097
:102B7000AC431F4D40352C6300BF01682C46646B8D
:102B8000CE06F60E0125B540AC43194D40356C63B9
:102B900000BFD907C90F002911D001682C46246B4A
:102BA000CE06F60E0125B540AC43CE06F60E012545
:102BB000B5402C430E4D40352C6300BF00BF0221B1
:102BC0001940022912D10168094C4034646BCE06C9
:102BD000F60E0125B540AC43CE06F60E0125B540F4
:102BE0002C43034D40356C6300BF00BFF0BD0000B7
:102BF00000180240024610690840884201D10120B5
:102C000070470020FCE7024610690840884201D165
:102C1000012070470020FCE7F8B507460C46002568
:102C2000002621E00121A940206808400646002E28
:102C300019D031463846626800F055F831463846BA
:102C4000A26800F065F8606802280CD1FF2E05D854
:102C500031463846226900F01BF804E03146384618
:102C6000226900F027F86D1C2068E8400028D9D1BF
:102C70006068012802D06068022804D13846E26802
:102C8000216800F03DF8F8BD8162704781627047AD
:102C900030B5046A0B464B434B434B431D01ED1AC1
:102CA0002346AB430C464C434C434C4354432343D1
:102CB000036230BD30B50B0A5B430C0A63430C0A58
:102CC00063431C01E41A436AA3430C0A64430D0ADC
:102CD0006C430D0A6C4354432343436230BD81610E
:102CE00070478161704730B503680C464C436500FE
:102CF0006419A3430C464C4354432343036030BD43
:102D000010B543688B430C4654432343436010BDC6
:102D100030B5C3680C464C4365006419A3430C46A8
:102D20004C4354432343C36030BD00000148024973
:102D300008607047AAAA0000003000400449496BAF
:102D40000143034A516300BF00BF00BF704700004A
:102D5000001002400449496B0143034A516300BF1C
:102D600000BF00BF704700000010024070B5002493
:102D700000F07CF8054600BF05488068072109027D
:102D80000840060A2846F0400446204670BD000070
:102D90000010024070B50026FFF7E8FF054600BFAF
:102DA00007488068072109030840040B032C01D25F
:102DB0002E4603E0E41E2846E0400646304670BD3D
:102DC0000010024070B50026FFF7D0FF054600BF97
:102DD00007488068072109040840040C032C01D22D
:102DE0002E4603E0E41E2846E0400646304670BD0D
:102DF00000100240F8B500200090002600BF1848DF
:102E0000C068C007C00F002801D0164E00E0164E63
:102E10001348C068F8210840C4081148C068072159
:102E200009020840050A002C00D12024002D00D101
:102E300008253146614308462946FDF759F90646FB
:102E40000748C068032149040840470C0120B840E6
:102E500001463046FDF74CF900900098F8BD00009F
:102E60000010024000127A000024F40070B5002423
:102E7000002500BF174880683821084010280CD072
:102E800004DC002814D0082811D104E0182808D048
:102E900020280CD108E0104C19E0FFF7ABFF0446E6
:102EA00015E07D24240212E00124E4030FE000BFBA
:102EB000084800680321C9020840C10A012088406F
:102EC000054629460548FDF713F9044600BF00BF33
:102ED000204670BD0010024000127A000024F40069
:102EE0000449C96A0143034AD16200BF00BF00BF61
:102EF00070470000001002400449C96A0143034AB8
:102F0000D16200BF00BF00BF704700000010024048
:102F10000449C96A0143034AD16200BF00BF00BF30
:102F200070470000001002400449C96A0143034A87
:102F3000D16200BF00BF00BF704700000010024018
:102F400010B5026A8C000123A3409A43026210BDAF
:102F500010B5026A8C000123A3401A43026210BD1F
:102F600001680122114301607047000010B58A68B2
:102F7000C26200BF0268E0239A430B691A430260F1
:102F80004A6803687024A3431343036000BFCA6800
:102F9000036803242402A3431343036000BF0A68A9
:102FA000826200BF0122426100BF024AD343036133
:102FB00000BF10BD5F1E0000FEB505460E4614465C
:102FC00021462846FFF7BCFF204601953168029153
:102FD000C207D20F002A00D100E0082217460222C1
:102FE0000240002A00D100E004220092019A134618
:102FF0001833009A99180A687323BB409A43029BBE
:10300000BB401A430A6000BFB068296AA3000222CD
:103010009A409143A200034693401943296200BF9E
:10302000F06808281CD120460295C207D20F002A5A
:1030300000D100E00822019202220240002A00D1C1
:1030400000E004220092029A13461833009A99185D
:103050000A680827019B9F403A430A6000BF1CE0B2
:1030600020460295C207D20F002A00D100E00822B4
:10307000019202220240002A00D100E004220092C4
:10308000029A13461833009A99180A680827019B78
:103090009F40BA430A6000BF00BF306904281CD1BA
:1030A00020460295C207D20F002A00D100E0082274
:1030B000019202220240002A00D100E00422009284
:1030C000029A13461833009A99180A680427019B3C
:1030D0009F403A430A6000BF1CE020460295C207A9
:1030E000D20F002A00D100E0082201920222024001
:1030F000002A00D100E004220092029A13461833FD
:10310000009A99180A680427019B9F40BA430A60F5
:1031100000BF00BF7068A3002A46343299180A68BD
:10312000120C120402430A6000BFFEBD30B58D00D0
:10313000044634342B191C68240C240414431C60EA
:1031400030BD0000F3B581B004462548844203D168
:10315000FFF738FE06461BE02248844201D10120D9
:1031600000E0002020498C4201D1012100E0002133
:1031700008431E498C4201D1012100E0002108438F
:10318000002803D0FFF706FE064601E00120FEBD41
:1031900000BF27680121C9030F4000BF08468742CE
:1031A00008D172000299490850180299FCF7A0FF53
:1031B00005460BE0002F07D10299490888190299AA
:1031C000FCF796FF054601E00120E0E7102D05D34E
:1031D0000748854202D8E5600020D8E70120D6E7FD
:1031E000003801400044004000480040004C0040CE
:1031F000FFFF00000162704702680A4302607047E7
:1032000001680122114301607047024610680840BE
:10321000884201D1012070470020FCE702469068F7
:103220000840884201D1012070470020FCE7024697
:10323000D0690840884201D1012070470020FCE796
:103240000246D0690840884201D101207047002021
:10325000FCE770B504460D46E868216801221203B8
:1032600091430143216000BF286961680322120372
:1032700091430143616000BF686821680122D20365
:1032800091430143216000BF286821680C229143CB
:103290000143216000BF68692168D2019143014365
:1032A000216000BFA869A168521091430143A16049
:1032B00000BF2046A968FFF745FF002801D0012084
:1032C00070BD0020FCE781627047000000200749C4
:1032D0000880084600881021884310300349088080
:1032E00000200349087003490870704766000020F9
:1032F000690000206800002070B502203A49096882
:10330000890889000143384A116000BF00BF37486F
:103310000068911508433549086000BF00BF00BF31
:1033200032480068012189020840800A0028F6D04E
:10333000002060210122520213022C4CE4682C4D23
:103340002C4005461D430D4315432C43274DEC608F
:1033500000BF00BF28460068D10308432946086023
:1033600000BF00BF00BF2148006801214906084096
:10337000400E0028F6D000BF1C48C0684912084320
:103380001A49C86000BF02208968C908C900014302
:10339000164A916000BF00BF00BF14488068382102
:1033A00008401028F8D1002010498968072212022D
:1033B000914301430D4A916000BF00BF11468968E7
:1033C0000722120391430143084A916000BF00BFE6
:1033D000114689680722120491430143034A916010
:1033E00000BFFEF70DF870BD002002400010024043
:1033F00006F8F9FF10B5244880880A281FDB234807
:10340000006803281BD921480068C4B200201E4967
:1034100088801E48006882B21D491E48FFF710F9D7
:1034200040211B48FCF7C5FE0020184908602146D2
:103430001848FDF7D5FD40211648FCF7BAFE1248A2
:1034400000890A281FDB1448006804281BD312488F
:103450000068C4B200200C4908810F48006882B29D
:103460000E490C48FFF7ECF840210C48FCF7A1FE90
:1034700000200949086021460648FDF7D3FD402198
:103480000448FCF796FE10BD8C01002018000020B7
:10349000CC00002096010020200000204C010020DC
:1034A00000B585B014216846FCF783FE0120FFF7C4
:1034B00023FD202000900220019000200290022095
:1034C0000490694605200007FFF7A6FB80200090C6
:1034D00004200490694605200007FFF79DFB05B016
:1034E00000BD000000B58BB0142106A8FCF761FEFA
:1034F000142101A8FCF75DFE0420FFF72BFC00203F
:10350000069007900E480890002009900A9006A99E
:103510000C48FFF72BFD70200190002003900290D3
:10352000002201A90748FFF747FD60200190002015
:103530000290032201A90348FFF73EFD0BB000BD36
:10354000E70300000008004000B585B0142168467C
:10355000FCF72FFE0120FFF7CFFC40200090022057
:103560000190002002900520049069460007FFF7B3
:1035700053FB05B000BD000000B58BB0142106A8B8
:10358000FCF717FE142101A8FCF713FE0820FFF733
:10359000E1FB0020069007900A480890002009905F
:1035A0000A9006A90848FFF7E1FC7020019000206E
:1035B00003900290002201A90348FFF7FDFC0BB025
:1035C00000BD0000E7030000000C004010B586B00D
:1035D000142101A8FCF7EDFD4020FFF7BBFB1649C5
:1035E00016480068FCF784FD441E019400200290F8
:1035F0006320039000200490059001A91048FFF774
:10360000B5FC01200E49C96801430D4AD16000BFD5
:103610001046FFF7A5FC00211220FEF713FB122035
:10362000002805DBC206D20E01219140054A116037
:1036300000BF06B010BD000000350C008400002063
:103640000010004000E100E000B585B0142168469C
:10365000FCF7AFFD0120FFF743FC0220FFF740FC21
:1036600006200090022001900120029004906946FB
:1036700005200007FFF7D0FAC02000900120049039
:1036800069460B48FFF7C8FA052000900420049013
:1036900069460748FFF7C0FA0A200090042004900A
:1036A000694605200007FFF7B7FA05B000BD000026
:1036B0000004005000B587B01C216846FCF779FD76
:1036C00001204004FFF73AFB01208004FFF736FB9E
:1036D0000120C004FFF732FBE120400202900C20E1
:1036E00000900020069005900490039069460C48D5
:1036F000FFF7AFFD4B20C001029069460948FFF774
:10370000A8FD69460848FFF7A4FD0648FFF778FDC5
:103710000348FFF775FD0448FFF772FD07B000BDD1
:103720000048004000440040004C004010B52021FB
:103730000C48FFF761FD01211A20FEF747FA1A2015
:10374000FEF72CFA20210848FFF756FD20210748F4
:10375000FFF752FD01211B20FEF738FA1B20FEF770
:103760001DFA10BD0044004000480040004C0040DD
:1037700010B5FFF7DBFAFDF7A5FBFFF7D7FAFDF76A
:10378000BFFFFFF7D3FAFFF735FEFFF7CFFA10BD03
:103790007047000010B504463B480088022188436A
:1037A0003949088000203949087039490880394969
:1037B0000880FF202D3038490880384908800846A5
:1037C000018835480088FFF70BF80020344908804D
:1037D0002E490870012C25D12B480088A10288436E
:1037E00040182949088008460088E1028843264994
:1037F000088008460088210388432349088008463A
:1038000000784007C00F002808D00846008804212F
:1038100088431D490880FDF727FC34E00120FDF7AF
:10382000C7FD30E0022C16D117480088610288439A
:103830001549088008460088A102884340181249AB
:10384000088008460088E10288430F49088002206A
:10385000FDF7AEFD17E0032C15D10B4800880121C0
:103860008902884308490880084600880121C90266
:1038700088430549088008460088012109038843D8
:1038800040180149088010BD660000206900002032
:103890006000002062000020700000207200002004
:1038A0005400002010B5FEF793FF10BD0100020088
:1038B0000400060008000A000C0010002000400070
:1038C000800000014A616E4665624D61724170720E
:1038D0004D61794A756E4A756C4175675365704FD5
:1038E00063744E6F764465630000000001000000C1
:1038F00002000000040000000800000010000000AA
:1039000020000000400000008000000001000000D6
:1039100001000000010000000100000002000000A2
:10392000040000000800000010000000DDDDDDDD07
:10393000DCBBBBDDDDDDDDDDDDDDDDDD9888888840
:1039400088888888777777777788888885555556E7
:10395000666666666666666666688888833333323E
:1039600022222222222222222228888D8C3900081B
:10397000000000208C000000341D0008183A0008E8
:103980008C0000205C050000441D000856342E30D9
:10399000315F32332E30312E303100000000000014
:1039A0000000000000000000000000000000000017
:1039B0000000000000000000000000000000000007
:1039C00000000000000000000000000000000000F7
:1039D00000000000000000000000000000000000E7
:1039E00000000000000000000000000000000000D7
:1039F00000000000000000000000000084038403B9
:103A000000000000000000000000000000000000B6
:083A10000024F4000000000096
:04000005080000C12E
:00000001FF
