:020000040800F2
:1000000078050020D5000008DD000008DF000008AA
:1000100000000000000000000000000000000000E0
:10002000000000000000000000000000E1000008E7
:100030000000000000000000E3000008E5000008E8
:10004000E7000008E7000008E7000008E7000008F4
:10005000E7000008E7000008E7000008B90800080A
:10006000E7000008E7000008E700000800000000C3
:10007000E70000080000000000000000010B00087D
:10008000E7000008E7000008E7000008E7000008B4
:10009000E7000008E700000800000000E700000893
:1000A000E7000008D50C0008990B0008050C0008B3
:1000B000E7000008E7000008E7000008E700000884
:1000C0000348854600F032FA004800473D17000813
:1000D000780500200448804704480047FEE7FEE713
:1000E000FEE7FEE7FEE7FEE7E10A0008C1000008C0
:1000F00030B50B46014600202022012409E00D46C0
:10010000D5409D4205D31D469540491B2546954047
:1001100040191546521E002DF1DC30BD70B500248B
:100120002546002801DA01244042002901DA012590
:100130004942FFF7DDFFAC4200D04042002C00D026
:10014000494270BDF0B51FB40646002082B0054696
:100150004024019100901BE0019922460F46304651
:1001600000F08BF9049A059B801A994110D3104630
:100170001946224600F071F9361A8F41019722463E
:1001800001200021009F00F068F938184D410090CF
:100190002046641E0028DFDC019B00982946324679
:1001A00007B0F0BDD2B201E00270401C491EFBD284
:1001B00070470022F6E710B513460A460446194672
:1001C000FFF7F0FF204610BD30B505462A460B4626
:1001D00010781C78521C5B1C002801D0A042F7D07C
:1001E000002C03D0002802D06D1CEFE7284630BD5C
:1001F0000FB400B58DB009900B9010A900200091AC
:10020000C0430A9000200C900648069006480790CC
:100210006A4609A80F9900F057F90DB008BC04B060
:1002200018470000E904000809050008FFB5002789
:10023000FF4383B000205C6801909E681D46A96959
:100240007F1C049888470090296A88470028F6D1C7
:100250000098401C0CD0032040028443002E19DD7E
:10026000600614D500982B2809D02D280FD103E063
:100270000020C04307B0F0BD012080020443A969FB
:100280007F1C04988847761E0090002E02DD00989F
:10029000302803D00598002825D035E00120400201
:1002A0000443A969761E7F1C049888470090002E9D
:1002B00003DD782805D0582803D00598002810D0F1
:1002C00022E00598002801D010281DD1012040020D
:1002D0008443A969761E7F1C0498884700901020EB
:1002E00002E0082000E00A2005900DE0012149020B
:1002F0000C43059A0199761E514308180190A9698B
:100300007F1C049888470090002E05DD0599009811
:1003100000F0C4F80028E9DAE96904988847A005E4
:1003200002D40120C043A5E7E00722D1600611D521
:100330006005019800D5404229680A1D2A600968B5
:10034000220501D5087014E0220701D5088010E0CD
:1003500008600EE02868011D29600068210502D5AB
:100360000199017005E02107019901D5018000E0A4
:10037000016038467EE7FFB5002083B000905068EA
:1003800001909169144600269768049888470546AD
:100390000C990698084305D009E0A169761C0498D9
:1003A00088470546216A284688470028F5D1681CF9
:1003B00003D00198C00704D017E00020C04307B065
:1003C000F0BD2068011D2160006800900DE00198DB
:1003D000C00704D1009805700098401C0090A169E6
:1003E000761C7F1E049888470546002F1CDD681C7C
:1003F0001AD0069800280FD0E817C00E40194111F6
:100400008A0006994009511840012A1A09680120FA
:1004100090400142DBD107E00C980028D7D1216A37
:10042000284688470028D2D0E16904988847019877
:100430000C99C007C00F084302D100980021017039
:10044000A068B84204DD0C98002804D0002F02D028
:100450000120C043B3E73046B1E710B5202A04DBE2
:100460000146203A9140002010BD914020239C1A63
:100470000346E3401943904010BD10B5202A04DB29
:100480000846203AD040002110BD0B46D340D04052
:100490002024A21A91400843194610BD3A2800D2E0
:1004A0003038202302469A43412A01D31046373878
:1004B000884201D30020C0437047000002681378CF
:1004C000511801601846704710B5D1600449516158
:1004D0000449116200211161114600F041F810BD7C
:1004E000BD040008510500084268002A08D00168D0
:1004F0000B78491C002B03D0521E06C018467047CB
:100500000121C160881E70474268002A0BD0C36871
:100510000168002B07D183688B4204D0491E521C0E
:1005200006C0002070470020C0437047064C0125DC
:10053000064E05E0E36807CC2B430C3C984710348B
:10054000B442F7D3FFF7C0FD38270008582700084A
:1005500010B50F21C0B2490200F09CF910BD000097
:10056000F3B58DB000200A9001200B9000260846BC
:100570000C300C46099062690121099890470500EA
:100580002ED0252D2DD0216A8847002818D06269E9
:10059000012109989047216A88470028F7D1411E18
:1005A00062690998904700E0761CA1690D98884718
:1005B000216A88470028F7D1E1690D988847DAE772
:1005C000A1690D9888470746A84201D1761CD2E759
:1005D000E1690D9888477F1C02D10A98002877D0DE
:1005E00046E1002762693D463946099890472A2826
:1005F0000CD16269012109989047012506E00A2182
:100600004F433F18303FEBD410200543626901216E
:1006100009989047014630390A2903D29A498F42F6
:10062000DEDCECE7E90600D4984F6C280AD04C28B1
:1006300010D0682824D06A282ED074280CD07A28AC
:100640000AD00DE062690121099890476C2823D0F7
:1006500004211CE02020054362690121099890478C
:10066000A760656065284FD026DC582839D01ADC91
:10067000452849D012DC252834D04128B0D143E0A8
:100680006269012109989047682802D008210D432A
:10069000E6E70120C002DEE70220DCE7462833D08F
:1006A00047282CD130E05B287BD061282CD06328F0
:1006B00077D0642823D15EE06F284CD009DC66280F
:1006C00022D0672820D0692826D06E2817D12EE0A6
:1006D000CAE070284AD073286CD075284BD078288F
:1006E0000DD150E0A1690D9888470546252800D115
:1006F0006CE7E1690D9888476D1C00D16DE7B7E0A4
:100700000A2248E00A224FE0012023466A46C043FD
:100710000D99C046C046A0E02846402108436060CD
:10072000A807234601D5002235E000223CE02068DE
:10073000011D21600068290501D506701BE7290706
:1007400001D5068017E7A90703D5F11706604160B8
:1007500011E706600FE72846402108436060A807BC
:10076000234601D5082216E008221DE04849284604
:100770000840606016E02846402108436060A807F2
:100780002346BFD5BCE72846402108436060A80740
:1007900008D5234610220120C0430D99C046C0460B
:1007A0005BE007E0234610220120C0430D99FFF7CC
:1007B0003DFD52E000210C910B460091632802D0D0
:1007C0005B2807D043E0E80601D40120A0600120A7
:1007D00000903CE062690121099890475E2805D1AC
:1007E00001200C900146626909989047216900290F
:1007F00006D10B4601AA8F00491CD3510829FADB08
:10080000002835D0216900290ED1C117C90E091859
:100810004A11930001AA9A1849094901411A012075
:100820001368884003431360626901210998904767
:100830005D28E5D10C98002808D0002001AB81008C
:100840005A58401CD2435A500828F8DB01AB01200B
:100850002246C0430D99FFF78EFD00280ADA401C9E
:1008600006D10B98002803D00020C0430FB0F0BD84
:100870000A98FBE7E90702D10A99491C0A91361840
:1008800000200B9077E60000CCCCCC0CFFFFFF7F64
:10089000F1F7FFFF7F2801D9002207E0054B42084E
:1008A0009A5CC00700D112091207120F0120904074
:1008B00008407047F826000810B5204800F0CCFF2B
:1008C000002805D01D4800F0BDFF01201C4908602C
:1008D0001A48401E00F0C0FF002806D01748401EEE
:1008E00000F0B0FF0120164908601448401C00F0D9
:1008F000B3FF002806D01148401C00F0A3FF0120E0
:100900000F4908600D48801C00F0A6FF002806D0A3
:100910000A48801C00F096FF012009490860032066
:10092000400600F099FF002806D00320400600F0A2
:1009300089FF01200249086010BD00000D0000067B
:100940005C00002007480068012809D1800306499F
:1009500049694140044A516100BF002001490860D3
:10096000704700005C0000200004005010B51348E0
:100970000078002821D0002010490870104909682B
:10098000491C6422514308460E490968491CFFF777
:10099000AFFB0D49086001F0DBF804460948016827
:1009A000491C2046FFF7A4FB084908600648026876
:1009B0000846016806A000F0E1F910BD58000020CB
:1009C0004400002040000020480000204C0000208F
:1009D000467265713D256C642C20647574793D25E3
:1009E000640D0A00FEB53948806838210840102897
:1009F00012D004DC002848D0082845D104E018288B
:100A000007D0202840D101E0314D4DE00125ED0314
:100A10004AE07D252D0247E02C48C068C607F60F46
:100A2000002E01D02A4C04E0002E01D1294C00E018
:100A300000242648C068F8210840C7082348C06839
:100A4000072109020840000A0290002F00D1202748
:100A50000298002801D108200290214679430846D7
:100A60000299FFF745FB04461848C0680321490472
:100A70000840400C01900122019882401146204616
:100A8000FFF736FB05460FE000BF10480068032162
:100A9000C9020840C10A0120884000900D48009911
:100AA000FFF726FB054600BF00BF08488068072106
:100AB00009020840000A800007490C5821462846D0
:100AC000FFF716FB05490860FEBD0000001002405C
:100AD00000127A000024F400B8260008600000200C
:100AE00003480449886004480449086070470000CE
:100AF0000000000800ED00E00024F4006000002089
:100B000010B502211F4801F00EF9002822D0022161
:100B10001C4801F011F900281CD01B48006800286F
:100B200007D10120184908600021164801F0F2F8A9
:100B300010E01548006801280CD10021114801F08F
:100B4000E9F81249086002210E4801F0DBF80120A3
:100B50000F49087004210B4801F0E5F800280FD078
:100B60000421084801F0E8F8002809D001210548CF
:100B700001F0D0F8074908600421024801F0C2F8EA
:100B800010BD0000000400403C0000204000002098
:100B9000580000204400002010B52021164801F024
:100BA0008EFA002805D10121134801F091FA00289E
:100BB00009D00821104801F094FA002803D0082138
:100BC0000D4801F071FA20210B4801F078FA002855
:100BD00010D02021084801F084FA00280AD00648E5
:100BE00001F0C2FAC1B205480468601C034A1060F3
:100BF0000348015510BD00000044004018000020CB
:100C0000A800002010B520212C4801F058FA002837
:100C100005D10121294801F05BFA002809D00821FB
:100C2000264801F05EFA002803D00821234801F08D
:100C30003BFA2021214801F042FA002810D020215F
:100C40001E4801F04EFA00280AD01C4801F08CFA28
:100C5000C1B21B480468601C194A1060194801554C
:100C60002021194801F02BFA002805D1012116484E
:100C700001F02EFA002809D00821134801F031FABA
:100C8000002803D00821104801F00EFA20210E4858
:100C900001F015FA002810D020210B4801F021FAAC
:100CA00000280AD0084801F05FFAC1B2074804687A
:100CB000601C064A10600648015510BD00480040FF
:100CC0001C000020E8000020004C00402000002014
:100CD0002801002010B52021234801F0F0F9002858
:100CE00005D10121204801F0F3F9002809D008219D
:100CF0001D4801F0F6F9002803D008211A4801F038
:100D0000D3F92021184801F0DAF9002810D0202169
:100D1000154801F0E6F900280AD0134801F024FA3A
:100D2000C1B212480468601C104A10601048015596
:100D300010210D4801F0C3F9002813D010210A48F2
:100D400001F0CFF900280DD0084800680949086073
:100D50000120094908700020044908601021024858
:100D600001F0A2F910BD000000380140140000207D
:100D70006800002024000020280000200FB410B5D7
:100D800003A9044B044A029800F0F8F810BC08BC10
:100D900004B0184799160008640000200FB410B57D
:100DA00004A9074B02AA039800F0E8F8044602A938
:100DB000002000F01DFB204610BC08BC04B0184702
:100DC000F1130008002805DBC206D20E0121914074
:100DD000014A11607047000000E100E0002805DBD7
:100DE000C206D20E01219140014A116070470000F5
:100DF00000E100E010B5002819DB1A4A03231B02AA
:100E0000D21883089B00D2588307DC0EFF23A3402F
:100E10009A438B071B0E8407E40EA3401A43114B21
:100E2000032424021B198408A4001A5118E00E4A56
:100E300003071B0F083B9B089B00D2588307DC0E5F
:100E4000FF23A3409A438B071B0E8407E40EA340A5
:100E50001A43054B0407240F083CA408A4001A51A8
:100E600010BD000000E100E01CED00E010B500281E
:100E700019DB1A4A03231B02D21883089B00D2589D
:100E80008307DC0EFF23A3409A438B071B0E8407C6
:100E9000E40EA3401A43114B032424021B198408B7
:100EA000A4001A5118E00E4A03071B0F083B9B08C9
:100EB0009B00D2588307DC0EFF23A3409A438B0785
:100EC0001B0E8407E40EA3401A43054B0407240FAE
:100ED000083CA408A4001A5110BD000000E100E085
:100EE0001CED00E010B5002819DB1A4A03231B0291
:100EF000D21883089B00D2588307DC0EFF23A3403F
:100F00009A438B071B0E8407E40EA3401A43114B30
:100F1000032424021B198408A4001A5118E00E4A65
:100F200003071B0F083B9B089B00D2588307DC0E6E
:100F3000FF23A3409A438B071B0E8407E40EA340B4
:100F40001A43054B0407240F083CA408A4001A51B7
:100F500010BD000000E100E01CED00E002E008C868
:100F6000121F08C1002AFAD170477047002001E023
:100F700001C1121F002AFBD170470000FFB591B0DC
:100F80000F460546002606E025280AD0149A139934
:100F900090476D1C761C28780028F5D1304615B096
:100FA000F0BD002400940121F34A029400E00443C0
:100FB0006D1C2B780846203B98401042F7D12878CA
:100FC0002A280ED0022128780246303A092A15D85C
:100FD000009A0A235A43303A80180C436D1C009043
:100FE000F1E701CF0090002805DA01204003044317
:100FF000009840420090022004436D1C28782E285F
:1010000015D10420044368786D1C2A280AD101CF29
:101010006D1C02900BE002990A22514330394018AE
:101020006D1C02902878014630390929F3D92878B7
:101030006C2810D006DC4C281AD068280ED06A28FC
:1010400017D104E0742813D07A2812D110E00120BF
:10105000400504430CE00121090501E003210905D5
:101060000C436978814203D10120000524186D1CCE
:101070006D1C287803906E281ED00CDC632831D0BC
:1010800004DC00288AD0582811D1B2E064287BD033
:1010900069280CD178E073282DD004DC6F2870D03B
:1010A000702804D1A7E075286CD078286BD0149AEA
:1010B00013999047761C62E06002400F022807D027
:1010C00003280AD0042838680AD006603F1D56E07D
:1010D0003868F11706604160F8E738680680F5E780
:1010E0000670F3E73878694608740020487404A84D
:1010F0000390012003E0386803900020C0433F1DA7
:1011000061070FD5002101E00199491C029A019164
:10111000914213DA8142F7DB019A0399895C002935
:10112000F2D10BE0002101E00199491C01918142BB
:10113000FADB019A0399895C0029F5D1019900989D
:10114000139A401A00902146149B00F03BF9019934
:101150008019461807E0039803990078491C039109
:10116000149A139990470198401E0190401CF2D1A7
:101170002146149B139A009800F014F986196D1CEF
:1011800009E741E033E034E00A20002104900591B2
:101190006002410F022905D001CFC21794460329EE
:1011A00005D007E0FF1DFF08FF0003CF06E000B2F7
:1011B000C2179446042902D140B2C1178C460022BE
:1011C0006146944506DA0A460021404291418C4628
:1011D0002D2102E0210504D52B216A46117601213B
:1011E00003E0E10701D02021F7E7019154E00A2054
:1011F0000BE0102009E0102004900021042004439B
:1012000008200591029003E0082000210591049038
:101210006002410F022905D001CF00229446032924
:1012200006D006E0FF1DFF08FF0003CF8C4603E059
:1012300080B2042900D1C0B20021019121072BD531
:101240000399702906D0049A1021059B4A401A433D
:1012500005D00EE040216A461176012108E0614682
:10126000014306D030216A46117603995176022156
:101270000191049A0821059B4A401A430CD161460A
:10128000014301D1610707D530216A46117601215A
:1012900001910299491E02910399582904D037A15E
:1012A00003910FA90F910DE039A1F9E76146059B64
:1012B000049AFEF747FF039B8C469B5C0F9A521ED5
:1012C0000F92137061460143F0D10F9807A9081AD5
:1012D00020300390600704D5012000048443029865
:1012E00001E0012002900399884201DD401A00E0EC
:1012F000002041180290019809180098401A0090A7
:10130000E00306D42146149B139A009800F05AF883
:1013100086190020049008E006A9085C149A139925
:1013200090470498401C761C049001998842F3DB96
:10133000E0030CD52146149B139A009800F042F864
:10134000861904E0149A302013999047761C02996C
:10135000481E02900029F5DC08E00F980F990078EC
:10136000491C0F91149A13999047761C0399481EB3
:1013700003900029F1DCFBE609280100303132330B
:1013800034353637383961626364656600000000C1
:1013900030313233343536373839414243444546AB
:1013A00000000000F8B5044600251E4617468804D4
:1013B00004D405E039462020B0476D1C641EF9D5E1
:1013C0002846F8BDFFB50446002581B01E46C80377
:1013D00001D5302700E02027880404D505E03846F1
:1013E0000399B0476D1C641EF9D5284605B0F0BDC1
:1013F0000A68531C0B6010707047000000B585B080
:1014000014216846FEF7D5FE012000F053FCFF20B2
:101410000130009002200190002004900290694663
:101420000520000700F0E6FA0321090601208007E5
:10143000064A926877231B069A430B4603431A43D6
:10144000024B9A6000BF05B000BD000000100240D2
:1014500010B506200849C9680143074AD16000BF9A
:101460000021104600F046FC0121034800F042FC38
:10147000014800F04AFC10BD0004004010B50021F6
:10148000054800F037FC0321034800F033FC024814
:1014900000F03BFC10BD00000008004010B500212A
:1014A000034800F027FC024800F02FFC10BD0000AC
:1014B000000C004070B588B029A101A8FFF76EFCB0
:1014C00006A807AB04AA29A1009001A8FEF790FE88
:1014D00004A92948FEF778FE2749461A0321304619
:1014E000FEF71CFE451C7D2109010698401A069056
:1014F00006240A210698FEF711FE30301F490855D0
:101500000A210698FEF70AFE30311C4A601C11546D
:101510000A212846FEF702FE3030C1B2174AE01C0D
:1015200011540A212846FEF7F9FD3031134A201DD7
:1015300011540A210798FEF7F1FD3030C1B20F4A6D
:10154000A01D11540A210798FEF7E8FD30310B4A1F
:10155000E01D115411460AA0FFF710FC08B070BD41
:101560004D61792031352032303236002573202507
:101570006420256400000000902600080000002080
:10158000536F66745F566572733A2025730D0A00B7
:1015900000B589B0002005900690079008901421AE
:1015A0006846FEF706FE022000F090FB042000F0E3
:1015B0008DFB082000F08AFB0120400300900020F2
:1015C000019002906946304800F014FA2F480590C7
:1015D0000120069002200790089005A800F04CF921
:1015E0000120000300900020019001200290694634
:1015F000274800F0FFF92548401E0590012006907D
:10160000022007900120089005A800F035F901207C
:10161000C0030090002001900120029069461C4800
:1016200000F0E8F91948801C05900120069002207E
:1016300007900120089005A800F01EF9032107205B
:10164000FFF750FC0720FFF7C9FB012000900020A6
:1016500001900120029069460E4800F0CBF903206A
:101660004006059001200690022007900320089074
:1016700005A800F001F903210520FFF733FC052040
:10168000FFF7ACFB09B000BD000800500D000006DC
:1016900000040050000C005070B504460D46214671
:1016A000054800F066FD00BF4021034800F019FD29
:1016B0000028F9D0204670BD0038014000BF0E4818
:1016C0004068012108430C49486000BF00BF00BFCB
:1016D000094840680221084040080028F7D000BFB0
:1016E00006480749086000BF0420486000BF00BFEB
:1016F0000448086000BF7047401002405555000084
:1017000000300040CCCC000000B585B01421684604
:10171000FEF74FFD022000F0D9FA0120800300906F
:10172000012001900290002003906946024800F0D9
:1017300061F905B000BD00000004005000F01CFD80
:1017400000F0DAFE00F01EFF00F06CFF18A11CA0F4
:10175000FFF714FB21A0FFF711FBFFF7ABFEFFF72C
:10176000D3FF00F05FF8FFF713FFFFF747FE00F02D
:10177000B3FD00F0C9FDFFF76BFE00F027FE00F09F
:1017800047FEFFF77BFE00F075FE00F08BFEFFF7D3
:1017900085FEFFF793FF0AE000BF1948194908606A
:1017A00000BF00F067FDFFF7E1F8FFF7CBF8F3E7C4
:1017B00048453431355F4D425F56342E303100009C
:1017C0002A2A2A2A2A2A2A2A2A25732A2A2A2A2A35
:1017D0002A2A2A2A2A200D0A000000000D0A627512
:1017E000696C64284D6179203135203230323620E1
:1017F0002D2031333A35383A343029200D0A000093
:10180000AAAA00000030004030B50346002400BF03
:1018100005E00D781D70491C5B1C651CACB2944240
:10182000F7DB30BD0648006904210843044908611C
:10183000084600690121084301490861704700001A
:1018400000E000E0C206D20E01219140014A916001
:101850007047000000180240014606488068CB0629
:10186000DB0E01229A401040002801D00120704771
:101870000020FCE700180240F0B50324640601686C
:101880002140002969D0017A8A07920F0168584CDB
:101890006468CE06F60E0125B540AC43544D6C602D
:1018A00000BF01682C462468CE06F60E0125B5401F
:1018B000AC434F4D2C6000BFD107C90F002910D099
:1018C00001682C462468CE06F60E0125B540AC43CF
:1018D000CE06F60E0125B5402C43454D2C6000BFC9
:1018E00000BF02211140022910D10168404C6468F8
:1018F000CE06F60E0125B540AC43CE06F60E012508
:10190000B5402C433A4D6C6000BF00BF0324640611
:1019100001682140A14220D1C468016803256D06F9
:101920000D4003267606B54215D1C906C90E304DC5
:101930005035CE08B600AD594E07F70E0726BE400B
:10194000B5434E07F60E2746B7403D43284E503666
:10195000CF08BF00F55100BF00BF01798B079B0F77
:101960000168234C4034246BCE06F60E0125B540A9
:10197000AC431F4D40352C6300BF01682C46646B9F
:10198000CE06F60E0125B540AC43194D40356C63CB
:1019900000BFD907C90F002911D001682C46246B5C
:1019A000CE06F60E0125B540AC43CE06F60E012557
:1019B000B5402C430E4D40352C6300BF00BF0221C3
:1019C0001940022912D10168094C4034646BCE06DB
:1019D000F60E0125B540AC43CE06F60E0125B54006
:1019E0002C43034D40356C6300BF00BFF0BD0000C9
:1019F00000180240F8B507460C460025002621E0F5
:101A00000121A940206808400646002E19D0314621
:101A10003846626800F04DF831463846A26800F05A
:101A20005DF8606802280CD1FF2E05D83146384693
:101A3000226900F017F804E031463846226900F0C8
:101A400023F86D1C2068E8400028D9D1606801287F
:101A500002D06068022804D13846E268216800F0AC
:101A600035F8F8BD30B5046A0B464B434B434B4346
:101A70001D01ED1A2346AB430C464C434C434C43EB
:101A800054432343036230BD30B50B0A5B430C0A59
:101A900063430C0A63431C01E41A436AA3430C0A20
:101AA00064430D0A6C430D0A6C4354432343436261
:101AB00030BD30B503680C464C4365006419A34340
:101AC0000C464C4354432343036030BD10B5436878
:101AD0008B430C4654432343436010BD30B5C36869
:101AE0000C464C4365006419A3430C464C435443D5
:101AF0002343C36030BD00000449496B0143034ADE
:101B0000516300BF00BF00BF7047000000100240DB
:101B10000449496B0143034A516300BF00BF00BF42
:101B2000704700000010024070B5002400F07CF8FF
:101B3000054600BF05488068072109020840060ADB
:101B40002846F0400446204670BD000000100240C8
:101B500070B50026FFF7E8FF054600BF074880681C
:101B6000072109030840040B032C01D22E4603E091
:101B7000E41E2846E0400646304670BD0010024094
:101B800070B50026FFF7D0FF054600BF0748806804
:101B9000072109040840040C032C01D22E4603E05F
:101BA000E41E2846E0400646304670BD0010024064
:101BB000F8B500200090002600BF1848C068C00794
:101BC000C00F002801D0164E00E0164E1348C06822
:101BD000F8210840C4081148C068072109020840DC
:101BE000050A002C00D12024002D00D10825314603
:101BF000614308462946FEF77BFA06460748C06857
:101C0000032149040840470C0120B84001463046F2
:101C1000FEF76EFA00900098F8BD00000010024038
:101C200000127A000024F40070B50024002500BFE3
:101C3000174880683821084010280CD004DC0028A0
:101C400014D0082811D104E0182808D020280CD17D
:101C500008E0104C19E0FFF7ABFF044615E07D24C7
:101C6000240212E00124E4030FE000BF08480068EA
:101C70000321C9020840C10A0120884005462946BF
:101C80000548FEF735FA044600BF00BF204670BD88
:101C90000010024000127A000024F4000449C96ACE
:101CA0000143034AD16200BF00BF00BF704700007C
:101CB000001002400449C96A0143034AD16200BFCF
:101CC00000BF00BF70470000001002400449C96A0D
:101CD0000143034AD16200BF00BF00BF704700004C
:101CE0000010024010B5026A8C000123A3409A4301
:101CF000026210BD10B5026A8C000123A3401A4392
:101D0000026210BDCA43026170470168012211439B
:101D10000160704710B502468C001046343023181D
:101D2000186880B210BD024610690840884201D18F
:101D3000012070470020FCE70246D0680840884236
:101D400001D1012070470020FCE7000010B58A682F
:101D5000C26200BF0268E0239A430B691A43026023
:101D60004A6803687024A3431343036000BFCA6832
:101D7000036803242402A3431343036000BF0A68DB
:101D8000826200BF0122426100BF024AD343036165
:101D900000BF10BD5F1E0000FEB505460E4614468E
:101DA00021462846FFF79EFF204601957168029163
:101DB000C207D20F002A00D100E0082217460222F3
:101DC0000240002A00D100E004220092019A13464A
:101DD0001833009A99180A680323BB409A43029B60
:101DE000BB401A430A6000BF20460195F16802918A
:101DF000C207D20F002A00D100E0082217460222B3
:101E00000240002A00D100E004220092019A134609
:101E10001833009A99180A687023BB409A43029BB2
:101E2000BB401B011A430A6000BF3068296AA30047
:101E30000A229A409143A200034693401943296223
:101E400000BF20460195B1680291C207D20F002A57
:101E500000D100E00822174602220240002A00D1E9
:101E600000E004220092019A13461833009A991850
:101E70000A680C23BB409A43029BBB401A430A608A
:101E800000BFFEBDFEB505460E4614462146284657
:101E9000FFF728FF2046019531680291C207D20F53
:101EA000002A00D100E00822174602220240002A40
:101EB00000D100E004220092019A13461833009AE0
:101EC00099180A687323BB409A43029BBB401A438C
:101ED0000A6000BFB068296AA30002229A409143B9
:101EE000A200034693401943296200BFF068082806
:101EF0001CD120460295C207D20F002A00D100E073
:101F00000822019202220240002A00D100E00422AD
:101F10000092029A13461833009A99180A68082703
:101F2000019B9F403A430A6000BF1CE02046029597
:101F3000C207D20F002A00D100E00822019202223B
:101F40000240002A00D100E004220092029A1346C7
:101F50001833009A99180A680827019B9F40BA43D2
:101F60000A6000BF00BF306904281CD120460295DA
:101F7000C207D20F002A00D100E0082201920222FB
:101F80000240002A00D100E004220092029A134687
:101F90001833009A99180A680427019B9F403A4316
:101FA0000A6000BF1CE020460295C207D20F002A3B
:101FB00000D100E00822019202220240002A00D152
:101FC00000E004220092029A13461833009A9918EE
:101FD0000A680427019B9F40BA430A6000BF00BF04
:101FE0007068A3002A46343299180A68120C120449
:101FF00002430A6000BFFEBDF3B581B00446254828
:10200000844203D1FFF7BCFD06461BE02248844210
:1020100001D1012000E0002020498C4201D10121A2
:1020200000E0002108431E498C4201D1012100E05B
:1020300000210843002803D0FFF78AFD064601E08F
:102040000120FEBD00BF27680121C9030F4000BF6A
:102050000846874208D1720002994908501802992F
:10206000FEF746F805460BE0002F07D10299490814
:1020700088190299FEF73CF8054601E00120E0E7E7
:10208000102D05D30748854202D8E5600020D8E727
:102090000120D6E7003801400044004000480040DD
:1020A000004C0040FFFF00000162704702680A43D5
:1020B00002607047016801221143016070470246C7
:1020C00010680840884201D1012070470020FCE7D9
:1020D000024690680840884201D1012070470020E4
:1020E000FCE70246D0690840884201D101207047D0
:1020F0000020FCE770B504460D46E868216801221F
:10210000120391430143216000BF286961680322E3
:10211000120391430143616000BF68682168012296
:10212000D20391430143216000BF286821680C223B
:1021300091430143216000BF68692168D201914346
:102140000143216000BFA869A16852109143014377
:10215000A16000BF2046A968FFF74EFF002801D00C
:10216000012070BD0020FCE70146486AC005C00D93
:10217000704781627047000070B502203A490968D3
:10218000890889000143384A116000BF00BF374801
:102190000068911508433549086000BF00BF00BFC3
:1021A00032480068012189020840800A0028F6D0E0
:1021B000002060210122520213022C4CE4682C4DB5
:1021C0002C4005461D430D4315432C43274DEC6021
:1021D00000BF00BF28460068D103084329460860B5
:1021E00000BF00BF00BF2148006801214906084028
:1021F000400E0028F6D000BF1C48C06849120843B2
:102200001A49C86000BF02208968C908C900014393
:10221000164A916000BF00BF00BF14488068382193
:1022200008401028F8D100201049896807221202BE
:10223000914301430D4A916000BF00BF1146896878
:102240000722120391430143084A916000BF00BF77
:10225000114689680722120491430143034A9160A1
:1022600000BFFEF7BFFB70BD00200240001002401F
:1022700006F8F9FF10B51048007801281AD100209F
:102280000D4908700D480068002813D00B480068FD
:1022900082B20B490B48FFF7B7FA084801680AA059
:1022A000FEF76CFD07490BA0FEF768FD40210448CE
:1022B000FDF77FFF10BD0000280000202400002053
:1022C000680000206801002072785F6C656E202530
:1022D0006420090025730A0000B585B01421684602
:1022E000FDF767FF0220FFF7E5FC102000900220B9
:1022F00001900290049069460248FFF77BFB05B00D
:1023000000BD00000004005010B58AB0142105A8DB
:10231000FDF74FFF002001900290039004900220EF
:10232000FFF7F6FB00200690254807900020089054
:10233000099005A92348FFF709FD04202149896870
:10234000C908C90001431F4A916000BF50201146CF
:1023500089687022914301431A4A916000BF0020AE
:102360000146126A84000A23A3409A4384000B4664
:10237000A3401A43134B1A6200BF01900120029040
:1023800000200390002201A91846FFF705FD022056
:1023900001900290012201A90A48FFF7FDFC0021EB
:1023A0000F20FEF763FD0F20002805DBC206D20ECA
:1023B00001219140044A116000BF0AB010BD000025
:1023C000FFFF00000004004000E100E000B585B020
:1023D00014216846FDF7EDFE0120FFF76BFC20207D
:1023E0000090022001900020029002200490694693
:1023F00005200007FFF7FEFA8020009004200490DB
:10240000694605200007FFF7F5FA05B000BD00009A
:1024100000B58BB0142106A8FDF7CBFE142101A84E
:10242000FDF7C7FE0420FFF773FB0020069007901E
:102430007D20C0000890002009900A9006A90C4851
:10244000FFF784FC6020019000200390FF20F5300E
:102450000290002201A90648FFF714FD7D2002909A
:10246000032201A90248FFF70DFD0BB000BD0000DB
:102470000008004000B585B014216846FDF799FEBC
:102480000120FFF717FC402000900220019000205F
:1024900002900520049069460007FFF7ABFA05B0EB
:1024A00000BD000000B58BB0142106A8FDF781FE29
:1024B000142101A8FDF77DFE0820FFF729FB00206D
:1024C000069007907D20C0000890002009900A9097
:1024D00006A90848FFF73AFC60200190002003900D
:1024E000FF2078300290002201A90248FFF7CAFCC1
:1024F0000BB000BD000C004000B585B0142168464B
:10250000FDF757FE0120FFF7C9FB0220FFF7C6FBCE
:102510002020FFF7C3FB062000900220019001203D
:1025200002900490694605200007FFF763FAC02077
:1025300000900220019001200290049069460F480B
:10254000FFF758FA05200090022001900120029028
:102550000420049069460A48FFF74CFA08200090CE
:102560000220019001200290042004906946052079
:102570000007FFF73FFA05B000BD0000001400504F
:102580000004005000B587B01C216846FDF711FE1D
:10259000012080031E49896B01431D4A916300BFDE
:1025A00000BF00BF00BF01204004FFF7A5FA0120D3
:1025B0008004FFF7A1FAE120400202900C20009075
:1025C0000020069005900490039069461148FFF79B
:1025D00091FD0820009069460F48FFF78BFD4B20C6
:1025E000C001029069460D48FFF784FD69460C481A
:1025F000FFF780FD0748FFF75DFD0848FFF75AFD2C
:102600000748FFF757FD0448FFF754FD07B000BD2A
:102610000010024000380140004C004000440040DF
:102620000048004010B530211048FFF73FFD012160
:102630001920FEF7DFFB1920FEF7C4FB20210C4810
:10264000FFF734FD01211A20FEF7D4FB1A20FEF714
:10265000B9FB20210748FFF729FD01211B20FEF7C8
:10266000C9FB1B20FEF7AEFB10BD00000038014087
:102670000044004000480040010002000400060041
:1026800008000A000C00100020004000800000013B
:102690004A616E4665624D61724170724D61794A60
:1026A000756E4A756C4175675365704F63744E6FF4
:1026B0007644656300000000010000000200000095
:1026C00004000000080000001000000020000000CE
:1026D0004000000080000000010000000100000038
:1026E00001000000010000000200000004000000E2
:1026F0000800000010000000DDDDDDDDDCBBBBDD1F
:10270000DDDDDDDDDDDDDDDD988888888888888891
:1027100077777777778888888555555666666666B1
:102720006666666666688888833333322222222290
:10273000222222222228888D58270008000000200B
:10274000680000005C0F0008C02700086800002037
:10275000100500006C0F000856342E30315F323304
:102760002E30312E3031000000000000000000004B
:102770000000000000000000000000000000000059
:102780000001020304050607081112131415161799
:102790001800000000000000000000000000000021
:1027A0000000000000000000000000000000000029
:1027B00000000000000000000024F4000000000001
:04000005080000C12E
:00000001FF
